:09044B0032333A32393A313700FC
:10039E00081B000102030405060710083F065B4F09
:1003AE00666D7D077F6F777C395E7971021900006B
:0303BE0001230018
:0603C200C296C295D2961E
:1003C800C2950000E4FEEF1392CC0000D295000025
:0A03D800C295EFC313FF0EBE08EC40
:0103E20022F8
:100403000000E4FEEFC313FF30CC03430780D29513
:0A0413000000C29500000EBE08EACA
:01041D0022BC
:0A0440001203C2120403D295C29603
:01044A00228F
:0D0433001203C2AF051203C8D295C2962273
:100104007F81120440EF5470C4540F75F00AA4FEAA
:10011400EF540F2EF52C7F83120440EF5470C45417
:100124000F75F00AA4FEEF540F2EF52D7F851204EF
:1001340040EF5470C4540F75F00AA4FEEF540F2E10
:10014400F52E7F87120440EF5470C4540F75F00AE3
:10015400A4FEEF540F2EF52F7F8B120440EF547042
:10016400C4540F75F00AA4FEEF540F2EF5307F89A6
:10017400120440EF5470C4540F75F00AA4FEEF54F7
:100184000F2EF5317F8D120440EF5470C4540F7557
:10019400F00AA4FEEF540F2EF5327B007A00792C7E
:0101A4002238
:1002330090044BE493FF120377EFC454F0FEC0061F
:1002430090044CE493FF120377D0E02FF52C900435
:100253004EE493FF120377EFC454F0FEC0069004FC
:100263004FE493FF120377D0E02FF52D900451E470
:1002730093FF120377EFC454F0FEC006900452E4D8
:1002830093FF120377D0E02FFCE4FD7F8E1204333B
:10029300AD047F80120433AD2D7F82120433AD2C65
:1002A3007F841204337F81120440EF547FF518FDDD
:0C02B3007F801204337D807F8E020433B4
:10041E00E4FD7F8E1204337DA97F901204337D801C
:05042E007F8E02043383
:1003E30075B0EF7596FFE4F5957594FFF593C2A389
:1003F300758901D2AF758CFC758A17D28CD2A9226C
:03000B000201A54A
:1001A500C0E0C0F0C0D075D000C000758CFC758A69
:1001B50017C2AF0524051AE51A70020519646445CE
:1001C500197007F519F51A752301E524B4080375A7
:1001D5002400C2A3758000741B2524F8E6F5A0E56C
:1001E5002414601624FE601614601724FE6017148C
:1001F500601E2407702AE527800EE5278014E52672
:100205008006E526800CE52575F00A842408800A19
:10021500E52575F00A84740825F0F8E6F580800375
:0E022500758040D2AFD000D0D0D0F0D0E03203
:10034B001203E37F81120440EF30E70312023312F2
:10035B00041EE523B401FB12010478257C007D000B
:0C036B007E007F071200DEE4F52380E630
:030000000202BF3A
:0C02BF00787FE4F6D8FD7581320203065A
:10000E00E709F608DFFA8046E709F208DFFA803ED4
:10001E0088828C83E709F0A3DFFA8032E309F608C1
:10002E00DFFA8078E309F208DFFA807088828C8329
:10003E00E309F0A3DFFA806489828A83E0A3F608DD
:10004E00DFFA805889828A83E0A3F208DFFA804CB7
:10005E0080D280FA80C680D4806980F2803380108E
:10006E0080A680EA809A80A880DA80E280CA8033F7
:10007E0089828A83ECFAE493A3C8C582C8CCC5836F
:10008E00CCF0A3C8C582C8CCC583CCDFE9DEE7803F
:10009E000D89828A83E493A3F608DFF9ECFAA9F0BE
:1000AE00EDFB2289828A83ECFAE0A3C8C582C8CC14
:1000BE00C583CCF0A3C8C582C8CCC583CCDFEADE2D
:1000CE00E880DB89828A83E493A3F208DFF980CC8F
:1000DE0088F0EF60010E4E60C388F0ED2402B40488
:1000EE000050B9F582EB2402B4040050AF2323452F
:0600FE00822390005E73F6
:10037700EF7E0024D0B40A00401B24F9B40A0040E1
:1003870011B41000400F24E0B40A004005B4100077
:07039700400374FFFEFF228A
:1002CB0002034BE493A3F8E493A34003F68001F2FB
:1002DB0008DFF48029E493A3F85407240CC8C33334
:1002EB00C4540F4420C8834004F456800146F6DF03
:1002FB00E4800B010204081020408090039EE47EF2
:10030B00019360BCA3FF543F30E509541FFEE493F7
:10031B00A360010ECF54C025E060A840B8E493A3BE
:10032B00FAE493A3F8E493A3C8C582C8CAC583CAE9
:10033B00F0A3C8C582C8CAC583CADFE9DEE780BEA1
:0103C100003B
:00000001FF
