:10080000022600001E080000077406A505EB0599E6
:1008100004FC047003F403BC035402F702CC027E10
:10082000023801FA60CC000000020A010A010A0144
:100830000A010C010C0300040002090109010A016C
:100840000901000700020801080108010801080168
:100850000A020A010A010B020A0300080801080142
:100860000901080109020002080108020601060147
:1008700005030008090109010A010B010B0200022E
:10088000090108010A010900090200060A010A011A
:100890000A010A010C010C0300040A010A010C01FF
:1008A0000C020A01000608010801080108010801FC
:1008B0000A020A0100010A010A010A020A010A01E8
:1008C0000B010A04000608010801090108010802D9
:1008D00006010801080206010503000509010901D6
:1008E0000A010B010B0200010A01090108010A01BA
:0408F00009010000FA
:03000B00020B885D
:030B8800B2B432D2
:100B5700D3EF9400EE940040147D207C03ED1D70CC
:0D0B6700011CED4C70F7EF1F70E61E80E3DF
:010B7400225E
:1009C30074002527F58274003526F583E025E0249D
:1009D30008F8E6FE08E6FF4E6059D28CAB07AA067C
:1009E300E4C39BFFE49AFE74019400FDE49400FCCD
:1009F300E4FB7A01F9F8120B138F8C74002527F5A9
:100A03008274003526F583E025E02408F8E6FE0825
:100A1300E6FBAA06E4C39BFFE49AFE74019400FD7F
:100A2300E49400FCE4FB7A01F9F8120B13AF038F93
:100A33008A8002C28C0527E527700205262400F56B
:100A43008274003526F583E075F0B4A4FFAEF0128E
:100A53000B57C28C74002527F582E43400F583E03C
:100A630075F03CA4FFAEF0120B570527E527700283
:100A7300052664CC4526700BF526F5277F887E1363
:040A8300120B5722D9
:100B750075B210E4F5B1D2AFD2A9D28CC2B41209C4
:030B8500C380FB2F
:03000000020A876A
:0C0A8700787FE4F6D8FD758127020ACEC6
:100B1300C2D5E830E70FB2D5E4C39BFBE49AFAE40D
:100B230099F9E498F8EC30E717B2D5120B4912099A
:100B330031E4C39BFBE49AFAE499F9E498F880035F
:100B430012093130D50DE4C39FFFE49EFEE49DFD01
:040B5300E49CFC2200
:100A9300020B75E493A3F8E493A34003F68001F2F9
:100AA30008DFF48029E493A3F85407240CC8C33364
:100AB300C4540F4420C8834004F456800146F6DF33
:100AC300E4800B0102040810204080900800E47EBB
:100AD300019360BCA3FF543F30E509541FFEE49328
:100AE300A360010ECF54C025E060A840B8E493A3EF
:100AF300FAE493A3F8E493A3C8C582C8CAC583CA1A
:100B0300F0A3C8C582C8CAC583CADFE9DEE780BED1
:0108F4000003
:1008F50075F008758200EF2FFFEE33FECD33CDCCBA
:1009050033CCC58233C5829BED9AEC99E58298403C
:100915000CF582EE9BFEED9AFDEC99FC0FD5F0D619
:10092500E4CEFBE4CDFAE4CCF9A88222B800C1B943
:100935000059BA002DEC8BF084CFCECDFCE5F0CB81
:10094500F97818EF2FFFEE33FEED33FDEC33FCEBBA
:1009550033FB10D703994004EB99FB0FD8E5E4F975
:10096500FA227818EF2FFFEE33FEED33FDEC33FC62
:10097500C933C910D7059BE99A4007EC9BFCE99A56
:10098500F90FD8E0E4C9FAE4CCFB2275F010EF2F9B
:10099500FFEE33FEED33FDCC33CCC833C810D7079B
:1009A5009BEC9AE899400AED9BFDEC9AFCE899F8D6
:0E09B5000FD5F0DAE4CDFBE4CCFAE4C8F92269
:00000001FF
