:0300000002066F86
:0C066F00787FE4F6D8FD7581660206B6BF
:1002470000EF00C500AF00A00096008E0087008178
:10025700007C007800740071006D006B0068006519
:1002670000630061005F005D005B005A00580056A4
:1002770000550054005200510050004E004D004CF4
:10028700004B004A0049004800470046004500442B
:1002970000430043004200410040003F003F003E52
:1002A700003D003D003C003B003A003A0039003970
:1002B7000038003700370036003600350034003488
:1002C700003300330032003200310031003000309B
:1002D700002F002F002E002E002D002D002C002CAB
:1002E700002B002B002A002A0029002900290028BA
:1002F70000280027002700260026002600250025C5
:1003070000240024002400230023002200220022CE
:1003170000210021002000200020001F001F001FD7
:10032700001E001E001D001D001D001C001C001CDF
:10033700001B001B001B001A001A001A00190019E5
:1003470000180018001800170017001700160016ED
:1003570000160015001500150014001400140013F2
:1003670000130013001200120012001100110010F8
:1003770000100010000F000F000F000E000E000EFF
:10038700000D000D000D000C000C000C000B000B05
:10039700000B000A000A000900090009000800080C
:1003A7000008000700070007000600060005000513
:1003B70000360004000300030003000200020001EE
:1003C7000001000100000000FFFFFFFFFFFFFFFE2D
:1003D700FFFEFFFDFFFDFFFCFFFCFFFBFFFBFFFA3E
:1003E700FFFAFFF9FFF9FFF8FFF8FFF7FFF7FFF64E
:1003F700FFF6FFF5FFF5FFF4FFF3FFF3FFF2FFF260
:10040700FFF1FFF0FFF0FFEFFFEEFFEDFFEDFFEC79
:10041700FFEBFFEAFFE9FFE8FFE7FFE6FFE5FFE4A1
:10042700FFE3FFE2FFE0FFDFFFDDFFDCFFDAFFD8DE
:10043700FFD5FFD2FFCEFFC9FFC101693F065B4F62
:08044700666D7D077F6F400028
:1006FB00C105C101C102C104C100C103012D00012B
:10070B004E00015700012A00013900012300012E80
:10071B0000015A00015B00015C00015D00015E00FD
:10072B00016100016200016300016600025F0000CD
:10073B00025300010258000002510000044A00005D
:10074B00000004350000000002310000022B000005
:10075B0002240000024F0000022F000002260000BE
:10076B000255000002330000103A3F065B4F666DE6
:0A077B007D077F6F777C395E79718E
:10086D001208CFE4F52E300505C20512000A30013D
:10087D0005C20112090F300205C202120003300435
:10088D0005C20412002A300005C20012091F3003F0
:08089D00D5C20312091C80CE34
:03000B00020832B6
:10083200C0E0C0D0D205052DE52DB40A07752D0004
:10084200D201054EE54EB40A07754E00D202055795
:10085200E557B40A07755700D204052AE52AB40AF7
:0B08620005752A00D200D0D0D0E03293
:1008CF00E4F5937594FFF595759608438E805389DB
:1008DF00F0758A91758CFFD2AFD2A9C28DD28C22BE
:01000A0022D3
:0D090F000523E523B42805E4F523D20322D7
:070003007D14E4FF0205CAB1
:01002A0022B3
:03091C0002000EC8
:03091F000208A526
:0405CA008F108D11F0
:1005CE0078127C007D007BFF7A0479437E007F0CDD
:1005DE001200FEE4F580E5A054F04522F5A0E521D9
:1005EE007062E522B40900505B9005FEF82828736E
:1005FE0002061902061F02062502062B020631020A
:10060E00063702063D02064302064D7412255A8035
:10061E00287412255B80227412255C801C741225AE
:10062E005D80167412255E801074122561800A7426
:10063E00122562800474122563F8E6F58080088521
:10064E0066808003E4F5800522E52270020521D341
:10065E0095117480F8652198400675210085102249
:01066E002269
:1008A500C3E531648094805005755A0A8003852517
:1008B5005A85505B85305C755D0B755E0B852761D0
:0A08C500855662853463852E662295
:10000E00E5546401455370051208EF800312090090
:0C001E00C3E49554F554E49553F55322C7
:0F090000759DFFE4F5BDF5BE75BC8B7597202284
:1008EF00759DFFE4F5BDF5BE75BC8C759720D2AD37
:0108FF0022D6
:03002B0002044F7D
:10044F00C0E0C0F0C083C082C0D075D0080560E5A1
:10045F00607002055FC2AFD394A0E55F940F5003A5
:10046F0002053BE554640145537069E55113FEE500
:10047F005213FFEF2538FFEE3537FEE43536FDE436
:10048F003535FCC00EC00FAE51AF52AB0FAA0EE404
:10049F00F9F8D00FD00E1201B58E288F29E5292536
:1004AF00E0FFE52833FE74452FF58274023EF58395
:1004BF00E493F531740193F5327538007537007593
:1004CF003600753500755100755200755F00756007
:1004DF0000120786E554B4FF53E553B4FF4EE558B9
:1004EF00C313FEE55913FFEF254DFFEE354CFEE428
:1004FF00354BFDE4354AFCC00EC00FAE58AF59ABBB
:10050F000FAA0EE4F9F8D00FD00E1201B58E2B8F73
:10051F002C754D00754C00754B00754A00755800D1
:10052F00755900755F007560001207EAE5546401A4
:10053F004553703C0552E55270020551AFBDEFFEB9
:10054F00ADBE7C00E42DFFEC3EFEEF7802CEC31370
:10055F00CE13D8F9F5298E28FFE4FCFDE5382FF5E9
:10056F0038E5373EF537ED3536F536EC3535F535BB
:10057F00E554B4FF31E553B4FF2C0559E55970022A
:10058F000558AFBDEFFEADBE7C00E42DFFEC3EFE87
:10059F00E4FDE54D2FF54DE54C3EF54CED354BF5B6
:1005AF004BEC354AF54A53BCEF43BC08D2AFD2AD42
:0B05BF00D0D0D082D083D0F0D0E0324A
:10078600C3E53164809480500DC3E49532F565E489
:100796009531F5648006853164853265AE64AF6552
:1007A6007C037DE81201247E007F64CFCDCFCECCC2
:1007B600CE1201248E248F25AE64AF657C007D6445
:1007C6001201247E007F0ACFCDCFCECCCE120124DB
:1007D6008E4F8F50AE64AF657C007D0A1201248C6B
:0407E6002F8D302201
:1007EA00AE2BAF2C7C037DE81201247E007F64CF00
:1007FA00CDCFCECCCE1201248E268F27AE2BAF2C96
:10080A007C007D641201247E007F0ACFCDCFCECC3E
:10081A00CE1201248E558F56AE2BAF2C7C007D0A4A
:08082A001201248C338D3422ED
:10067B0002086DE493A3F8E493A34003F68001F220
:10068B0008DFF48029E493A3F85407240CC8C33380
:10069B00C4540F4420C8834004F456800146F6DF4F
:1006AB00E4800B01020408102040809006FBE47EDE
:1006BB00019360BCA3FF543F30E509541FFEE49344
:1006CB00A360010ECF54C025E060A840B8E493A30B
:1006DB00FAE493A3F8E493A3C8C582C8CAC583CA36
:1006EB00F0A3C8C582C8CAC583CADFE9DEE780BEEE
:010785000073
:10002E00E709F608DFFA8046E709F208DFFA803EB4
:10003E0088828C83E709F0A3DFFA8032E309F608A1
:10004E00DFFA8078E309F208DFFA807088828C8309
:10005E00E309F0A3DFFA806489828A83E0A3F608BD
:10006E00DFFA805889828A83E0A3F208DFFA804C97
:10007E0080D280FA80C680D4806980F2803380106E
:10008E0080A680EA809A80A880DA80E280CA8033D7
:10009E0089828A83ECFAE493A3C8C582C8CCC5834F
:1000AE00CCF0A3C8C582C8CCC583CCDFE9DEE7801F
:1000BE000D89828A83E493A3F608DFF9ECFAA9F09E
:1000CE00EDFB2289828A83ECFAE0A3C8C582C8CCF4
:1000DE00C583CCF0A3C8C582C8CCC583CCDFEADE0D
:1000EE00E880DB89828A83E493A3F208DFF980CC6F
:1000FE0088F0EF60010E4E60C388F0ED2402B40468
:10010E000050B9F582EB2402B4040050AF2323450E
:06011E00822390007E73B5
:10012400BC000BBE0029EF8DF084FFADF022E4CCBF
:10013400F875F008EF2FFFEE33FEEC33FCEE9DEC88
:10014400984005FCEE9DFE0FD5F0E9E4CEFD22EDCE
:10015400F8F5F0EE8420D21CFEADF075F008EF2F18
:10016400FFED33FD4007985006D5F0F222C398FD09
:050174000FD5F0EA22A6
:1001790075F008758200EF2FFFEE33FECD33CDCC3D
:1001890033CCC58233C5829BED9AEC99E5829840C0
:100199000CF582EE9BFEED9AFDEC99FC0FD5F0D69D
:1001A900E4CEFBE4CDFAE4CCF9A88222B800C1B9C7
:1001B9000059BA002DEC8BF084CFCECDFCE5F0CB05
:1001C900F97818EF2FFFEE33FEED33FDEC33FCEB3E
:1001D90033FB10D703994004EB99FB0FD8E5E4F9F9
:1001E900FA227818EF2FFFEE33FEED33FDEC33FCE6
:1001F900C933C910D7059BE99A4007EC9BFCE99ADA
:10020900F90FD8E0E4C9FAE4CCFB2275F010EF2F1E
:10021900FFEE33FEED33FDCC33CCC833C810D7071E
:100229009BEC9AE899400AED9BFDEC9AFCE899F859
:0E0239000FD5F0DAE4CDFBE4CCFAE4C8F922EC
:00000001FF
