:03000000020100FA
:0100030032CA
:0100130032BA
:02000B0061751D
:100100007593007594FF7595007596097530147593
:10011000313275321475343C75353C753618C20071
:10012000C201C202C204C205C206C220C221C2224A
:10013000C223C224C225C226C227D218D219D21A7B
:10014000D21BD21CD21DD21ED21F7547327548A0B9
:100150007549A0754AA0754BA0754CA0754DA0754A
:100160004EA0754FA0755901755808755700754018
:1001700000754100754200754300754400754500E7
:1001800075460A758922758780758CD2D288D28A85
:10019000D28C75A8821000291001281002271004A3
:1001A00026100525100624102023102122102221BC
:1001B00010232010241F10251E10261D10271C8020
:1001C000D48030806D613161336149615F8010801E
:1001D0001280148014801480148014801480B6055A
:1001E0005880B2155880AE80AC80AA80A880A680C6
:1001F000A480A2758000C2A3E559B4FF0F7401A8C2
:10020000570803D8FD855880D2A3801A54F8701679
:10021000E557232323255990030E93F8E6900326F0
:1002200093F5808559A00559E559B558037559FFCF
:10023000219520B202154820B3021549D5471775FC
:100240004732E5487548A033921020100B30180D46
:0F025000C218D22080072195201802D218E54944
:10025F007549A033921120110930190BC219D221FF
:10026F008005201902D219E54A754AA0339212204F
:10027F001209301A0BC21AD2228005201A02D21A82
:10028F00E54E754EA0339216201609301E0BC21E76
:10029F00D2268005201E02D21EE54C754CA033924B
:1002AF0014201409301C0BC21CD2248005201C0200
:1002BF00D21CE54D754DA0339215201509301D0B3D
:1002CF00C21DD2258005201D02D21DE54E754EA000
:1002DF00339216201609301E0BC21ED2268005201F
:1002EF001E02D21EE54F754FA0339217201709300B
:1002FF001F0BC21FD2278005201F02D21F21954539
:10030F004446434246414041404643424646574693
:10031F00464657464646403F065B4F666D7D077F14
:10032F006F4021950540E540B40A0D754000054129
:10033F00E541B4060375410021950542E542B40A33
:10034F000D7542000543E543B4060375430021953F
:10035F000544E544B40A0D7544000545E545B4026E
:10036F00037545002195D200D53025753014D20183
:10037F00D5311D753132D202D53215753214D204F2
:10038F00D5340D75343CD205D5350575353CD206BF
:01039F00322B
:00000001FF
