:0F0FE300EF1FAC0670011E4C6004000080F2226C
:100F5100AE071FEE60107C137D88ED1DAA047001A1
:060F61001C4A60EC80F464
:010F67002267
:0E0FF200120EB1120ED6120E8A7F32020F516D
:100F6800D2A7D2C5C2A77F0A7E00120FE3C2C57FEF
:060F78000A7E00020FE3F7
:100FA900C2A7D2C57F0A7E00120FE3D2A77F0A7EAD
:040FB90000020FE340
:100F1A00C2A77F0A7E00120FE3D2C57F0A7E0012A3
:0E0F2A000FE3C2C57F0A7E00120FE3D2A7229A
:100F3800E4FFD2C530A709EFC394FA50030F80F439
:090F4800C2C57F0A7E00020FE31E
:020DEA008F0C6C
:100DEC00E4F50DC2C57F0A7E00120FE3E50C3392C9
:100DFC00A7E50C25E0F50C7F0A7E00120FE3D2C5A7
:100E0C007F0A7E00120FE3050DE50DB408D5C2C5AF
:100E1C007F0A7E00120FE3D2C57F0A7E00020FE329
:100E8A00120F687F20120DEA120F38E4F50B742A4C
:100E9A00250BF8E6FF120DEA120F1A050BE50BC334
:070EAA00940840EA020FA9C1
:100EB100752800852C29E52DC413135403FD7C00EE
:100EC100E529AE287802C333CE33CED8F92DF529E2
:050ED100EE3CF52822B3
:100ED600AE28AF297C007D641208F6EF24D8FFEE19
:100EE6003453FEE43401FDEC338F358E348D33F507
:020EF6003222A6
:100EF800E5352428FFE53434ACFEE53334FEFDE562
:100F08003234FFFCE47B64FAF9F81209448E288F26
:020F180029228C
:100CC3008F0AE50AB40132E5352464F535E4353499
:100CD300F534E43533F533E43532F5327FE07EA580
:100CE3007D017C00AB35AA34A933F8D31209D64071
:100CF300477535CC7534558039E50AB4FF3AC3E5F9
:100D0300359464F535E5349400F534E5339400F512
:100D130033E5329400F5327FCC7E557D017C00AB08
:100D230035AA34A933F8C31209D6500C7535E075CA
:100D330034A5753301753200120EF8E529AE287813
:100D430002CEC313CE13D8F9F52CE5295403FFC4FF
:0B0D5300333354C04410F52D020E8A0B
:100E2C00E531540FF527BF010CB40F05E4F527800D
:100E3C000F0527800BE527700575270F80021527F6
:0F0E4C00E527540FFFE53154F04FF531020E8AC0
:1009E700E47B64FAF9F8AF35AE34AD33AC321209B3
:1009F700448F0D8E0C8D0B8C0AE531540FF527C3F0
:100A0700940A500AAF277E00E4FB7D01801FE5278B
:100A170075F00A84FF7E00E4FB7D01FC120B6AE59A
:100A27002775F00A84AFF07E00E4FB7D02FC120B11
:100A37006AE47BE87A03F9F8AF0DAE0CAD0BAC0AAC
:100A4700120944EC4D4E4F7003020AF7E47BE87A33
:100A570003F9F8AF0DAE0CAD0BAC0A120944E4FB79
:100A67007D05FC120B6AE47BE87A03F9F8AF0DAE5B
:100A77000CAD0BAC0A120944AC00AD01AE02AF03DA
:100A8700E47B64FAF9F8120944E4FB7D06FC120BD7
:100A97006AE47BE87A03F9F8AF0DAE0CAD0BAC0A4C
:100AA700120944AC00AD01AE02AF03E47B64FAF96E
:100AB700F8120944AC00AD01AE02AF03E47B0AFAB9
:100AC700F9F81209447B017D077C00120B6AE47B6D
:100AD700E87A03F9F8AF0DAE0CAD0BAC0A12094476
:100AE700AC00AD01AE02AF03E47B64FAF9F88052C3
:100AF700E47B64FAF9F8AF0DAE0CAD0BAC0A120942
:100B070044E4FB7D06FC120B6AE47B64FAF9F8AF58
:100B17000DAE0CAD0BAC0A120944AC00AD01AE0230
:100B2700AF03E47B0AFAF9F81209447B017D077CDD
:100B370000120B6AE47B64FAF9F8AF0DAE0CAD0B4B
:100B4700AC0A120944AC00AD01AE02AF03E47B0A64
:100B5700FAF9F8120944AE02AF03E4FB7D08FC1270
:020B67000B6A17
:010B69002269
:0E100000759D80E4F5BD75BCFF7F02020F51A7
:100FD10075BCEF00000000E5BC30E4FB53BCEFAF93
:010FE100BD52
:010FE20022EC
:100C1900120FD18F08E508C394604030E508D394DA
:100C29007F5029120FD18F08E508C3946050030241
:100C39000CC2E508D3947F4003020CC2120FD18F76
:100C4900081209E7E508D394F040F122E508C394B6
:100C590080402EE508D394A05027120FD18F08E5C4
:100C690008C394804053E508D394A0504C120FD187
:100C79008F081209E7E508D394F040F17509FF8060
:100C890033E508C394204031E508D3943F502A1234
:100C99000FD18F08E508C39420401EE508D3943F7F
:100CA9005017120FD18F081209E7E508D394F040C5
:090CB900F1750901AF09120CC329
:010CC200220F
:100E5B0020B2147F327E00120FE320B2051209E795
:100E6B0080F8E4FF120E2C20B3147F327E00120F99
:0F0E7B00E320B3051209E780F87F01120E2C2245
:100FBD003F065B4F666D7D077F6FBF86DBCFE6ED2E
:040FCD00FD87FFEFAE
:0D101C00E4F5977594FFF593F596F5952290
:0A0B6A008E0E8F0F8C108D118B1270
:100B740078137C007D007BFF7A0F79BD7E007F0AAD
:100B84001208D0781D7C007D007BFF7A0F79C77E28
:100B9400007F0A1208D0E5107053E51114B4070061
:100BA400504B900BB475F003A4C58325F0C5837333
:100BB400020BC9020BCD020BD1020BD5020BD902D9
:100BC4000BE1020BE9C2A2800EC2A28012C2A28073
:100BD40016C2A2801AD2A2C2A1C2A08016D2A2C2F8
:100BE400A1D2A0800ED2A2D2A1C2A08006D2A2D24B
:100BF400A1D2A0E5126004741D80027413250FF8BD
:100C0400E6F5807FF47E01120FE3E4F5807FF47E45
:040C140001120FE3D7
:010C180022B9
:100F9400082AC0111A50400288A50432000000003B
:040FA400022800001F
:100F7E0012100012101CE4F5B4F5B375CAFFF5C9D2
:060F8E00120FF2C2A322C3
:0E100E00120F7E1209E7120C19120E5B80F50C
:03000000020D5E90
:0C0D5E00787FE4F6D8FD758135020DA504
:10080000E709F608DFFA8046E709F208DFFA803EDA
:1008100088828C83E709F0A3DFFA8032E309F608C7
:10082000DFFA8078E309F208DFFA807088828C832F
:10083000E309F0A3DFFA806489828A83E0A3F608E3
:10084000DFFA805889828A83E0A3F208DFFA804CBD
:1008500080D280FA80C680D4806980F28033801094
:1008600080A680EA809A80A880DA80E280CA8033FD
:1008700089828A83ECFAE493A3C8C582C8CCC58375
:10088000CCF0A3C8C582C8CCC583CCDFE9DEE78045
:100890000D89828A83E493A3F608DFF9ECFAA9F0C4
:1008A000EDFB2289828A83ECFAE0A3C8C582C8CC1A
:1008B000C583CCF0A3C8C582C8CCC583CCDFEADE33
:1008C000E880DB89828A83E493A3F208DFF980CC95
:1008D00088F0EF60010E4E60C388F0ED2402B4048E
:1008E0000050B9F582EB2402B4040050AF23234535
:0608F00082239008507302
:1008F600EF8DF0A4A8F0CF8CF0A428CE8DF0A42E16
:02090600FE22CF
:1009080075F008758200EF2FFFEE33FECD33CDCCA6
:1009180033CCC58233C5829BED9AEC99E582984029
:100928000CF582EE9BFEED9AFDEC99FC0FD5F0D606
:10093800E4CEFBE4CDFAE4CCF9A88222B800C1B930
:100948000059BA002DEC8BF084CFCECDFCE5F0CB6E
:10095800F97818EF2FFFEE33FEED33FDEC33FCEBA7
:1009680033FB10D703994004EB99FB0FD8E5E4F962
:10097800FA227818EF2FFFEE33FEED33FDEC33FC4F
:10098800C933C910D7059BE99A4007EC9BFCE99A43
:10099800F90FD8E0E4C9FAE4CCFB2275F010EF2F88
:1009A800FFEE33FEED33FDCC33CCC833C810D70788
:1009B8009BEC9AE899400AED9BFDEC9AFCE899F8C3
:0E09C8000FD5F0DAE4CDFBE4CCFAE4C8F92256
:1009D600EB9FF5F0EA9E42F0E99D42F0E89C45F077
:0109E60022EE
:100D6A0002100EE493A3F8E493A34003F68001F281
:100D7A0008DFF48029E493A3F85407240CC8C3338A
:100D8A00C4540F4420C8834004F456800146F6DF59
:100D9A00E4800B0102040810204080900F94E47E46
:100DAA00019360BCA3FF543F30E509541FFEE4934E
:100DBA00A360010ECF54C025E060A840B8E493A315
:100DCA00FAE493A3F8E493A3C8C582C8CAC583CA40
:100DDA00F0A3C8C582C8CAC583CADFE9DEE780BEF8
:010FA8000048
:00000001FF
