:0300000002116F7B
:0C116F00787FE4F6D8FD7581200211B6EF
:0700030000000000000001F5
:1013610046004CFFFFFFFFFFFF500002FFFFFFFFA2
:10137100FFFFFF078069FFFFFFFFFFFF6020002BDA
:10138100000000000000000000000000000000005C
:10139100000000000000000000000000000000004C
:0A13A10041004B00C10041000000B4
:0E154400758901D2A9758CFC758A17D28C228C
:03000B0002000EE2
:06000E00C0E0C083C082C7
:06001400900000E004F082
:07001A00D082D083D0E03258
:1014A300E4FDFCE4FBFAD3EB9FEA9E50070BBB0081
:0F14B300010A80F20DBD00010CBC03E7BDE8E4A7
:0114C2002207
:1014FD00758E80439850758BE0758DFE438E40C27E
:0C150D0098C299D28ED2ACD2AFD2BC22D0
:0F151900A3E475F001120B56A9F0FA120A87FF2E
:0A152800C2998F993099FDC29922F3
:101417009000CEEBF0A3EAF0A3E9F0C2999000CEDA
:10142700E0FBA3E0FAA3E0F9120A8760089000CE78
:0614370012151980E822E5
:0B1460009000D1EBF0A3EAF0A3E9F04C
:10146B00C2ACE4FEEEC39D500B9000D1E0FB121515
:06147B00190E80F0D2AC56
:011481002248
:1014C300E4F5937594FF75B4FFF5B3F59575960838
:0D14D300F5801215441214FDD2C4C2C322CC
:10002600E4900053F0A3F0900056120B8B000000F2
:10003600001214C31214FD1215441213E37F111299
:100046000923900055EFF0F5801215521215327FF4
:10005600647E001214A390004BE06401705290007D
:100066002BE0FF644070497580F0900013EFF012AA
:1000760013E3E4900053F0A3F090004BE0FFC3902D
:100086000054E09F7480F8900053E0648098501507
:10009600E490002BF0900054E004F070DC900053E4
:1000A600E004F080D4E490004BF090001374FFF06D
:1000B60090004BE06401705A90002BE0FF644170A1
:1000C600517580F0900001EFF07B017A0079167F80
:1000D60052121287E4900053F0A3F090004BE0FF19
:1000E600C3900054E09F7480F8900053E0648098B9
:1000F6005015E490002BF0900054E004F070DC9072
:100106000053E004F080D4E490004BF090000174BA
:10011600FFF090004BE06401705290002BE0FF640A
:100126004270497580F0900014EFF0121532E49099
:100136000053F0A3F090004BE0FFC3900054E09F03
:100146007480F8900053E06480985015E490002B7A
:10015600F0900054E004F070DC900053E004F0806E
:10016600D4E490004BF090001474FFF090004BE044
:100176006401705290002BE0FF644370497580F073
:10018600900052EFF0121552E4900053F0A3F09055
:10019600004BE0FFC3900054E09F7480F89000533A
:1001A600E06480985015E490002BF0900054E00431
:1001B600F070DC900053E004F080D4E490004BF043
:1001C60090005274FFF07B017A0079167F5212126A
:1001D60087900055EFF070117580017B017A0079E8
:1001E60016120EA8900055EFF0900055E0701175AC
:1001F60080027B017A007916121019900055EFF0F3
:10020600900055E0600302055975800490004BE0AC
:10021600640160030202AD90002BE0F46003020269
:10022600AD7FFF1215287F491215287F0412152865
:10023600900053F0A3F0900053E0FEA3E0FFC394B8
:1002460004EE64809480501F74162FF58274003E6D
:10025600F583E0FF121528900054E004F070D79063
:100266000053E004F080CFE4900053F0A3F0900038
:100276004BE0FF900053E0FCA3E0FDC39F7480F8C1
:10028600EC648098501C742B2DF58274003CF58329
:10029600E4F0900054E004F070D4900053E004F0D1
:1002A60080CCE490004BF090004BE06408600302C1
:1002B60003F390002BE064FE60030203F390001248
:1002C6007411F090002CE0D3943F400A7FFE121583
:1002D600287F020203ACE4900053F0A3F090005391
:1002E600E0FEA3E0FF242DF58274003EF583E0FDD9
:1002F600744C2FF58274003EF583EDF0900054E0C7
:1003060004F07006900053E004F0900053E070048F
:10031600A3E0640670C790002CE0FD90005F7401B6
:10032600F0A37400F0A37416F07B017A00794C7F79
:10033600601210C9900055EFF0706490002CE0FF39
:100346007B017A00791A1211FB900055EFF0704686
:100356007FFE1215287F491215287F101215289046
:100366000053F0A3F0900053E0FEA3E0FFC3941007
:10037600EE648094805032741A2FF58274003EF534
:1003860083E0FF121528900054E004F070D7900027
:1003960053E004F080CF7FFE1215287F0180077F8F
:1003A600FE121528E4FF121528E4900053F0A3F07E
:1003B60090004BE0FF900053E0FCA3E0FDC39F7468
:1003C60080F8EC648098501C742B2DF58274003CE8
:1003D600F583E4F0900054E004F070D4900053E00C
:1003E60004F080CCE490004BF0900012F090004BAB
:1003F600E06418600302005C90002BE064FD60037B
:1004060002005C9000157412F090002CE0FFD3946B
:100416003F501EEF94044012EF24FCFFE434FFFE2D
:100426007C007D03120B01ED600790002CE0B40305
:100436000A7FFD1215287F0202050FE4900053F093
:10044600A3F0900053E0FEA3E0FF242DF582740094
:100456003EF583E0FD744C2FF58274003EF583ED86
:10046600F0900054E004F07006900053E004F09021
:100476000053E07004A3E0640670C790002CE0FD12
:1004860090005F7401F0A37400F0A37416F07B0172
:100496007A00794C7F601210C9900055EFF07062B7
:1004A600900053F0A3F0900053E0FEA3E0FF243346
:1004B600F58274003EF583E0FD74022FF582740028
:1004C6003EF583EDF0900054E004F0700690005382
:1004D600E004F0900053E07004A3E0641070C7904D
:1004E600002CE0FF7B017A007902120CEE90005599
:1004F600EFF07FFD7005121528800E1215287F0477
:1005060080077FFD121528E4FF121528E49000539A
:10051600F0A3F090004BE0FF900053E0FCA3E0FD59
:10052600C39F7480F8EC648098501C742B2DF58260
:1005360074003CF583E4F0900054E004F070D4902D
:100546000053E004F080CCE490004BF0900015F0EE
:1005560002005CE4900053F0A3F090004BE0FF90A3
:100566000053E0FCA3E0FDC39F7480F8EC64809820
:10057600501C742B2DF58274003CF583E4F090003A
:1005860054E004F070D4900053E004F080CCE49082
:06059600004BF002005CC6
:030023000213AC19
:1013AC00C0E0C083C082C0D075D010309819C298EC
:1013BC0090004BE0FF04F0742B2FF582E43400F521
:1013CC0083E599F04380F0309904C299C200D0D0E3
:0713DC00D082D083D0E03283
:0C148200B392C27F0A7E0012148EC2C119
:10148E00E4FDFCC3ED9FEC9E500A0000000DBD0074
:04149E00010C80EFCE
:0114A2002227
:0D12870090005AEFF0A3EBF0A3EAF0A3E90A
:1012940012143D7D077F0D1207BF7D037F141214C6
:1012A400E090005AE0900060F090007B7401F0A39D
:1012B400F0A37400F0A37460F0A37401F0A37400AD
:1012C400F0A3745EF07A0079601205BEEF70399075
:1012D400005EE07004A3E06410702D900060E0FEF6
:1012E40090005BE0FBA3E0FAA3E0F9EE120ACD90D4
:1012F4000061E0FE90005BE0FBA3E0FAA3E0F9905C
:0A1304000001EE120ADF80027FFEF6
:01130E0022BC
:0B0EA80090005AEBF0A3EAF0A3E9F081
:100EB300E490005E12143DE4FD7F0D1207BF7D80B8
:100EC3007F0E1214429000617493F0A37420F0908B
:100ED300007B7402F07B01A314F0A37400F0A374ED
:100EE30061F0A3EBF0A37400F0A3745FF07A0079D0
:100EF300617F0C1205C290005DEFF07058FC7461C5
:100F03002CF582E43400F583E0FE90005AE0FBA365
:100F1300E0FAA3E0F9AF048F82758300EE120ADFD3
:100F230090005EE0FE74612FF582E43400F583E007
:100F3300FDEE6D90005EF00CECB404C274612CF510
:100F430082E43400F583E0FF90005EE06F6006907A
:100F5300005D74FEF07D807F0E1214E090005DE072
:010F6300FF8E
:010F6400226A
:0B10190090005AEBF0A3EAF0A3E9F00E
:1010240090005F7493F0A37470F0E4900065F0FC9A
:1010340090005AE0FBA3E0FAA3E0F9AF048F8275B5
:101044008300120AA0FE74612FF582E43400F58354
:10105400EEF0900065E0FE8F82758300120AA0FD19
:10106400EE6D900065F00CECB404C590007574014D
:10107400F0A37400F0A37466F07B017A00795F7DBD
:1010840007120F7C12143E90007B7409F0A37401C4
:10109400F0A37400F0A3745FF0A37401F0A37400D0
:1010A400F0A3745DF07B017A00795F7F0C1205C2B6
:1010B400EF700F90005DE07004A3E064187003FF0C
:0410C40080027FFE29
:0110C8002205
:0B10C90090005CEBF0A3EAF0A3E9F05C
:1010D400900065EFF0A3EDF0E4FF90005CE0FBA36B
:1010E400E0FAA3E0F98F82758300120AA0FE746708
:1010F4002FF582E43400F583EEF00FEFB406DBE461
:10110400FF90005FE0FBA3E0FAA3E0F98F82758310
:1011140000120AA0FE746D2FF582E43400F583EE0C
:10112400F00FEFB406DB90007B740CF0A37401F0B5
:10113400A37400F0A37465F0A37401F0A37400F029
:10114400A37463F07B017A0079657F0E1205C29067
:101154000062EFF070097F08120923EF20E3069084
:0A116400006274FEF0900062E0FFEC
:01116E00225E
:0B11FB0090005AEBF0A3EAF0A3E9F02B
:1012060090005F7430F0A3EFF09000757401F0A3C6
:101216007400F0A37461F07A00795F120F78900081
:101226007B7404F0A37401F0A37400F0A3745FF060
:10123600A37401F0A37400F0A3745DF07B017A003F
:10124600795F7F0C1205C2EF703490005DE0700488
:10125600A3E064907028FE745F2EF582E43400F5F6
:1012660083E0FD90005AE0FBA3E0FAA3E0F98E824A
:10127600758300ED120ADF0EEEB410DB80027FFEEE
:011286002245
:0B0CEE0090005AEBF0A3EAF0A3E9F03D
:100CF90090005F74A0F0A3EFF09000757401F0A369
:100D09007400F0A37461F07B017A00795F7D0212AF
:100D19000F7C90007B7404F0A37401F0A37400F0BD
:100D2900A3745FF0A37401F0A37400F0A3745DF0E1
:100D39007B017A00795F7F0C1205C2EF7016900073
:100D49005DE07004A3E06404700A90005FE0540F52
:100D5900640A60027FFEEF6003020DE8FE90005A0C
:100D6900E0FBA3E0FAA3E0F98E82758300120AA0E2
:100D7900FD745F2EF582E43400F583EDF00EEEB4D8
:100D890010DB9000757401F0A37400F0A3746FF088
:100D99007B017A00795F7D10120F7C90007B7412C1
:100DA900F0A37401F0A37400F0A3745FF0A37401BD
:100DB900F0A37400F0A3745DF07B017A00795F7F82
:100DC9000C1205C2EF701690005DE07004A3E06498
:0F0DD90004700A90005FE0540F640A60027FFE0E
:010DE80022E8
:100DE90090008DEBF0A3EAF0A3E9F090008CEDF010
:100DF900900092EFF0A3ED120F6512059CEF7016AB
:100E0900900090E07004A3E06404700A900092E0FE
:100E1900540F640A60027FFEEF7052FE90008DE06D
:100E2900FBA3E0FAA3E0F98E82758300120AA0FD04
:100E390074922EF582E43400F583EDF00EEEB410D1
:100E4900DB9000757401F0A37400F0A37496F07B35
:100E5900017A0079927D04120F7CE4900090F0A34E
:100E6900F0740612059EEF64FE6002E4FFEF702E37
:100E790090009274B0F090008CE0900093120F658E
:100E890012059CEF7016900090E07004A3E06404D2
:0E0E9900700A900092E0540F640A60027FFE1F
:010EA7002228
:050BBC009000A4EDF023
:100BC1009000A774C2F0A3EFF09000757401F0A338
:100BD1007400F0A374A9F07B017A0079A77D021259
:100BE1000F7C90007B7404F0A37401F0A37400F0F7
:100BF100A374A7F0A37401F0A37400F0A374A5F08B
:100C01007B017A0079A77F0C1205C2EF7016900064
:100C1100A5E07004A3E06404700A9000A7E0540FFB
:100C2100640A60027FFEEF70529000A7F0A3F0A368
:100C3100F0A3F07B0190007504F0A37400F0A3749D
:100C4100ABF07A0079A77D04120F7C90007B7406CB
:100C5100F0A37401F0A37400F0A374A7F0A37401CE
:100C6100F0A37400F0A374A5F07B017A0079A77F4B
:100C71000C1205C2EF64FE6002E4FFEF60037FFE29
:100C8100229000A774B0F09000A4E09000A8F0902A
:100C910000757401F0A37400F0A374A9F07B017ACC
:100CA1000079A77D02120F7C90007B7404F0A3747D
:100CB10001F0A37400F0A374A7F0A37401F0A3746E
:100CC10000F0A374A5F07B017A0079A77F0C1205CF
:100CD100C2EF70169000A5E07004A3E06404700AEE
:0C0CE1009000A7E0540F640A60027FFE40
:010CED0022E4
:10130F009000BC7450F0E4A3F07B0190007504F0E2
:10131F00A37400F0A374BEF07A0079BC7D02120FA3
:10132F007C90007B7404F0A37401F0A37400F0A30D
:10133F0074BCF0A37401F0A37400F0A374BAF07B33
:10134F00017A0079BC7F0C1205C29000B9EFF07FD3
:01135F00008D
:01136000226A
:100F6500F09000757401F0A37400F0A37494F07A06
:070F75000079927B017D026F
:0E0F7C00900071EBF0A3EAF0A3E9F0A3EDF012
:100F8A007D047F051214421207BB7D807F0A12146A
:100F9A00E0E4900078F0900074E0FF900078E0FEC2
:100FAA00C39F5021900071E0FBA3E0FAA3E0F98E01
:100FBA0082758300120AA0FD7F091207BF9000788C
:100FCA00E004F080D17D037F011207BF900078749E
:100FDA00FFF07F05120923900078E014F0E0600426
:100FEA00EF30E2EE7F22120923900075E0FBA3E0C6
:100FFA00FAA3E0F9EF120ACD7F21120923900075B6
:0F100A00E0FBA3E0FAA3E0F9900001EF020ADF98
:1013E3007D0F7F011207BF7D3D7F111207BF7D1E59
:1013F3007F2D1207BFE4FD7F2C1207BF7D8D7F2A4F
:101403001207BF7D3E7F2B1207BF7D407F1512075A
:04141300BF7F002275
:0509230090008AEFF0D6
:10092800E4A3F0C291D2C17F0AFE12148E90008A0D
:10093800E025E0547E4480FB7A08EB30E703D3805F
:1009480001C3121482EB25E0FBD2C112148EDAEA3D
:100958007A08C2C17F0A7E0012148E90008BE025AF
:10096800E0FFF0A290E4334FF0D2C17F0A12148E58
:10097800DAE090004BE06401702890002BE0B4406E
:1009880021900013E0B4401A7F4012152890008A85
:10099800E0FF1215287F4712152890008BE0FF1200
:1009A800152890004BE06401702890002BE0B441BA
:1009B80021900001E0B4411A7F4112152890008A65
:1009C800E0FF1215287F4712152890008BE0FF12D0
:1009D800152890004BE06401702890002BE0B44289
:1009E80021900014E0B4421A7F4212152890008A20
:1009F800E0FF1215287F4712152890008BE0FF12A0
:100A0800152890004BE06401702890002BE0B44357
:100A180021900052E0B4431A7F4312152890008AAF
:100A2800E0FF1215287F4712152890008BE0FF126F
:100A38001528900015E0B4121A7FFD1215289000B1
:100A48008AE0FF1215287F4712152890008BE0FFD7
:100A5800121528900012E0B4111A7FFE1215289082
:100A6800008AE0FF1215287F4712152890008BE0B6
:0E0A7800FF121528D29112148590008BE0FF1A
:010A8600224D
:0407BB00E4FD7F01D9
:0807BF0090008AEFF0A3EDF0B9
:1007C700C291D2C17F0A7E0012148E90004BE06462
:1007D70001702890002BE0B44021900013E0B44052
:1007E7001A7F4012152890008AE0FF1215287F48CB
:1007F70012152890008BE0FF12152890004BE0643B
:1008070001702890002BE0B44121900001E0B44131
:100817001A7F4112152890008AE0FF1215287F4899
:1008270012152890008BE0FF12152890004BE0640A
:1008370001702890002BE0B44221900014E0B442EC
:100847001A7F4212152890008AE0FF1215287F4868
:1008570012152890008BE0FF12152890004BE064DA
:1008670001702890002BE0B44321900052E0B4437C
:100877001A7F4312152890008AE0FF1215287F4837
:1008870012152890008BE0FF121528900015E0B490
:10089700121A7FFD12152890008AE0FF1215287F93
:1008A7004812152890008BE0FF121528900012E0DF
:1008B700B4111A7FFE12152890008AE0FF1215283E
:1008C7007F4812152890008BE0FF12152890008AA8
:1008D700E025E0547EFB7A08EB30E703D38001C3C1
:1008E700121482EB25E0FBD2C112148EDAEA7A08E1
:1008F70090008BE030E703D38001C312148290008D
:100907008BE025E0F0D2C17F0A12148EDAE2D29191
:0C0917007F0A7E0012148EC2C102148EF2
:0A14E000900089EDF0900088EFF015
:1014EA00E4FE120923AE07900088E0FFA3E04EFD58
:0314FA000207BF27
:05143D00F07D087F08AE
:0A144200900089EDF0900088EFF0B3
:10144C00E4FE120923AE07900088E0FFA3E0F45EEF
:04145C00FD0207BFC7
:10059C00740490007BF0A37401F0A37400F0A374B6
:1005AC0092F0A37401F0A37400F0A37490F07A009D
:0605BC0079927B017F0C27
:1005C200900078EBF0A3EAF0A3E9F0900077EFF067
:1005D20090008274FEF0E4A3F0A3F0EF24F4601024
:1005E20024FE70169000837412F0A37410F0800A37
:1005F2009000837477F0A37430F0900083E044801D
:10060200FD7F021207BF7D807F041214421207BBD6
:100612007D807F0A1214E0E4900086F0A3F090003F
:100622007BE0FF900086E0FCA3E0FDC39FEC94001A
:100632005028900078E0FBA3E0FAA3E0F98D828CC9
:1006420083120AA0FD7F091207BF900087E004F021
:1006520070CC900086E004F080C4900077E0FD7FCB
:10066200011207BF900077E0B40C077D807F0D1266
:1006720014E09000867402F0A37458F07F0412090B
:1006820023900085EFF0900087E024FFF090008631
:10069200E034FFF0E07002A3E06011900085E0FF1B
:1006A20020E009900084E0FEEF5E60D07D807F0D47
:1006B200121442900086E07002A3E070030207ABBE
:1006C2007F06120923EF541B60030207A5900082E4
:1006D200F0A3E0FF900085E05F30E00690008274B6
:1006E200FFF0900077E0640C60030207AB7F0A1210
:1006F2000923900085EFF07F0C120923EF5407FDC8
:100702006029900085E024FFFFE434FFFEEF7803C8
:10071200C333CE33CED8F97C002DFFEC3EF99000E6
:100722007FE0FBA3E0FAA3E0C98016900085E075A4
:10073200F008A4FF90007FE0FBA3E0FAA3E0F9E554
:10074200F08FF0120B6C900085E0700204F09000C4
:1007520085E0D3941240037412F0E4900086F0A373
:10076200F0900085E0FFC3900087E09F900086E054
:10077200940050357F0912092390007CE0FBA3E02E
:10078200FAA3E0F9900086E0FCA3E0F5828C83EF07
:10079200120ADF900087E004F070C6900086E00441
:1007A200F080BE90008274FEF07D807F0C1214E017
:0807B2001207BB900082E0FF7A
:0107BA00221C
:101532007F14120923EF540370077D037F141214E2
:01154200E0C8
:011543002285
:071552007D037F1402144227
:10117B00020026E493A3F8E493A34003F68001F264
:10118B0008DFF48029E493A3F85407240CC8C33375
:10119B00C4540F4420C8834004F456800146F6DF44
:1011AB00E4800B0102040810204080901361E47E60
:1011BB00019360BCA3FF543F30E509541FFEE49339
:1011CB00A360010ECF54C025E060A840B8E493A300
:1011DB00FAE493A3F8E493A3C8C582C8CAC583CA2B
:1011EB00F0A3C8C582C8CAC583CADFE9DEE780BEE3
:0113AB000041
:100A8700BB010689828A83E0225002E722BBFE026D
:090A9700E32289828A83E49322A0
:100AA000BB010CE58229F582E5833AF583E022500B
:100AB00006E92582F8E622BBFE06E92582F8E22255
:0D0AC000E58229F582E5833AF583E493226F
:100ACD00BB010689828A83F0225002F722BBFE0108
:020ADD00F32202
:100ADF00F8BB010DE58229F582E5833AF583E8F04D
:100AEF00225006E92582C8F622BBFE05E92582C8F9
:020AFF00F222E1
:100B0100BC000BBE0029EF8DF084FFADF022E4CCD8
:100B1100F875F008EF2FFFEE33FEEC33FCEE9DECA1
:100B2100984005FCEE9DFE0FD5F0E9E4CEFD22EDE7
:100B3100F8F5F0EE8420D21CFEADF075F008EF2F31
:100B4100FFED33FD4007985006D5F0F222C398FD22
:050B51000FD5F0EA22BF
:100B5600A3F8E0C5F025F0F0E58215827002158352
:060B6600E0C838F0E822AF
:100B6C00BB010A89828A83F0E5F0A3F0225006F7D4
:0F0B7C0009A7F01922BBFE06F3E5F009F31922D1
:100B8B00A8828583F0D083D082120BA2120BA21203
:100B9B000BA2120BA2E473E493A3C583C5F0C58328
:100BAB00C8C582C8F0A3C583C5F0C583C8C582C8B4
:010BBB002217
:00000001FF
