:100D1700021A03BC02080001100A3F065B4F666D0A
:0A0D27007D077F6F777C395E7971DC
:100CF900D3EF9400EE940040147D207C03ED1D7029
:0D0D0900011CED4C70F7EF1F70E61E80E33B
:010D160022BA
:03000300020A3BB3
:100A3B00C0E0C0F0C083C082C0D075D000C000C081
:100A4B0001C002C003C004C005C006C007C2A87F16
:100A5B000A7E00120CF920B276E50964074508708E
:100A6B0010751A03751BBC850B80F5087509018081
:100A7B005EE509640345087023AC1AAD1B1208A58B
:100A8B007B637A9C7987783F1208031208DE8E1AF3
:100A9B008F1B0509E50970310508802DAC1AAD1BBC
:100AAB00E41208A57B637A9C7987783F1208037B55
:100ABB00637A9C7987783F1208031208DE8E1A8FAF
:100ACB001B0509E50970020508240AF8E6F58030D4
:100ADB00B2FDD2A8D007D006D005D004D003D002E7
:0F0AEB00D001D000D0D0D082D083D0F0D0E03274
:03001300020CC11B
:100CC100C0E0C0D075D000C004C005C006C007C2D6
:100CD100AA7F0A7E00120CF920B30B308C06C28C5D
:100CE100C2B48002D28C30B3FDD2AAD007D006D0D4
:080CF10005D004D0D0D0E032A0
:03000B00020B865F
:100B8600C0E0C0F0C083C082C0D075D000C000C035
:100B960001C002C003C004C005C006C007B2B4AE9F
:100BA6001AAF1BAB07AA06E4C39BFFE49AFE7401C7
:100BB6009400FDE49400FCE4FB7A01F9F8120C7D44
:100BC6008F8CAE1AAF1BAB07AA06E4C39BFFE49A51
:100BD600FE74019400FDE49400FCE4FB7A01F9F84C
:100BE600120C7DAF038F8AD007D006D005D004D073
:100BF60003D002D001D000D0D0D082D083D0F0D0A4
:020C0600E032DA
:100C080075B210E4F5B175960FF5957592FFF591EB
:100C1800758901AE1AAF1BAB07AA06C39BFFE49AFE
:100C2800FE74019400FDE49400FCE4FB7A01F9F8F9
:100C3800120C7D8F8CAE1AAF1BAB07AA06E4C39BC0
:100C4800FFE49AFE74019400FDE49400FCE4FB7A4E
:100C580001F9F8120C7DAF038F8AD2AFD2A9D28CDA
:100C6800D2AAD28AD2A8D28875B805C2B475A0070C
:050C7800850B8080FEE9
:10080000020954EC5D046005E85904700302094ACA
:10081000120915580460F6EC4860F2EC7004FDFE15
:10082000FF22C860DB2481C85009C39860025006CB
:100830000209519850CAF582E9294B4A7005AB82EA
:1008400002094075F0007C1A7880C3EF9BEE9AEDA8
:1008500099400DC3EF9BFFEE9AFEED99FDE842F043
:10086000DC23ACF0D0E0FFD0E0FED0E0FDAB822096
:10087000E7101BEB60BAEC2CFCEF33FFEE33FEED20
:1008800033FD02092CE803F830E705C0F075F000ED
:10089000EF2FFFEE33FEED33FD40B830E7C280AA04
:1008A00075F020800E75F010800575F0087D007ED3
:1008B000007F003392D530D50312095FEC3340102E
:1008C000EF33FFEE33FEED33FDEC33FCD5F0ED22DC
:0E08D000E5F0247EA2D513CC92E7CDCEFF2218
:1008DE00EDD2E7CD33EC3392D524814006E4FFFE12
:1008EE00FDFC22FCE4CFCECDCC24E0501174FF8071
:1008FE00EDC3CC13CCCD13CDCE13CECF13CF04700E
:07090E00F030D5DE02095FA5
:10091500E9D2E7C933E833F892D5EDD2E7CD33EC28
:0709250033FC5002B2D522A1
:10092C00EC30E7100FBF000C0EBE00080DBD00042C
:10093C000BEB6014A2D5EB13FCED92E7FD2274FFD8
:10094C00FCFDFEFF22E480F8A2D574FF13FC7D8031
:03095C00E480EF45
:03000000020AFAF7
:0C0AFA00787FE4F6D8FD75811B020B41EB
:100C7D00C2D5E830E70FB2D5E4C39BFBE49AFAE4A2
:100C8D0099F9E498F8EC30E717B2D5120CB31209C4
:100C9D00A9E4C39BFBE49AFAE499F9E498F880037C
:100CAD001209A930D50DE4C39FFFE49EFEE49DFD1E
:040CBD00E49CFC2295
:0E095F00C3E49FFFE49EFEE49DFDE49CFC22A9
:100B0600020C08E493A3F8E493A34003F68001F2F1
:100B160008DFF48029E493A3F85407240CC8C333F0
:100B2600C4540F4420C8834004F456800146F6DFBF
:100B3600E4800B0102040810204080900D17E47E2B
:100B4600019360BCA3FF543F30E509541FFEE493B4
:100B5600A360010ECF54C025E060A840B8E493A37B
:100B6600FAE493A3F8E493A3C8C582C8CAC583CAA6
:100B7600F0A3C8C582C8CAC583CADFE9DEE780BE5E
:010D310000C1
:10096D0075F008758200EF2FFFEE33FECD33CDCC41
:10097D0033CCC58233C5829BED9AEC99E5829840C4
:10098D000CF582EE9BFEED9AFDEC99FC0FD5F0D6A1
:10099D00E4CEFBE4CDFAE4CCF9A88222B800C1B9CB
:1009AD000059BA002DEC8BF084CFCECDFCE5F0CB09
:1009BD00F97818EF2FFFEE33FEED33FDEC33FCEB42
:1009CD0033FB10D703994004EB99FB0FD8E5E4F9FD
:1009DD00FA227818EF2FFFEE33FEED33FDEC33FCEA
:1009ED00C933C910D7059BE99A4007EC9BFCE99ADE
:1009FD00F90FD8E0E4C9FAE4CCFB2275F010EF2F23
:100A0D00FFEE33FEED33FDCC33CCC833C810D70722
:100A1D009BEC9AE899400AED9BFDEC9AFCE899F85D
:0E0A2D000FD5F0DAE4CDFBE4CCFAE4C8F922F0
:00000001FF
