:101EFE00B4F3BCD2BAC3A3A10D0A0000A8C0003F20
:101F0E00065B4F666D7D077F6F000840014148BF3D
:101F1E0086DBCFE6EDFD87FFEF0010251031103286
:101F2E001033303208310832203110261031403152
:101F3E00082608250823082108160815081308F690
:101F4E0015202110221023182408231021102220DE
:101F5E0021101610214015202110221023102308C5
:101F6E0024082510211024182308251022082308E0
:101F7E002308220822302320251031102718260886
:101F8E002620251025082608271026082508234078
:101F9E002418240825102610251024082308222092
:101FAE00171017081608151016102180F5FFF47873
:071FBE00F703BB05FF00FF64
:10136F000746300009060901210234AA5501220A55
:10280C00784D7C007D007BFF7A1F79BF7E007F06B0
:10281C001206A87F0112325FEF7F00FEC006C007D0
:10282C007F0212325FEFFDD0E02DFFD0E03400FECE
:10283C00D3EF9438EE940450047D0180027D00C3E4
:10284C00EF9466EE940340047C0180027C00EC5D06
:10285C0060048E4D8F4E7F0312325FEFC3940F5086
:09286C00028F4F7B007A00794DC8
:012875002240
:102EDF00784E7C007D007B007A0079247E007F068F
:032EEF001206A820
:102EF200E54EFD7F01122F08AD4F7F02122F08AD64
:062F0200507F03022F08BE
:101D54001233CFEF7003021E30E52CB455047F011B
:101D640080027F00E52BB4AA047E0180027E00EE8F
:101D74005F7003021E18E52D240E606414606C2449
:101D8400026003021E0EAD2EAB2FEDC4540F75F08E
:101D94000AA4FFED540F7C002FFFEC35F0FE7D64A8
:101DA400120736AC06AD07EBC4540F75F00AA4FF56
:101DB400EB540F7A002FFFEA35F0CF2DF525EF3CD9
:101DC400F52485302678537C007D007B007A0079E9
:101DD400247E007F061206A8121FC5122EDF802A59
:101DE400852E48852F478530468009852E4C852FC2
:101DF4004A85304978547C007D007B007A0079461E
:101E04007E007F071206A812319F74042531F53134
:101E14007D3C80027D1E7C007FE87E031227947B3C
:0C1E2400007A00792B7D087C00122FA9A9
:011E3000228F
:100CA500E53364047003020F4ED5220375220AE56D
:100CB5003324FE605F147003020D5D24FE70030291
:100CC5000DC8147003020E33147003020E77240648
:100CD5006003020F0CE536701012339D78467C00D8
:100CE5007D007E007F071206A8E54CC4540FF54D24
:100CF500E54C540FF54E754F0CE54AC4540FF550AD
:100D0500E54A540FF55175520CE549C4540FF55396
:100D1500E549803DE536701012339D78467C007DAF
:100D2500007E007F071206A8E548C4540FF54DE57F
:100D350048540FF54E754F0CE547C4540FF550E573
:100D450047540FF55175520CE546C4540FF553E55C
:100D550046540FF554020F0C12338F783C7C007DFE
:100D6500007E007F0A1206A8AE40AF417C007D647C
:100D75001207488F4DAE40AF417C007D0A120748EF
:100D85007C007D0A1207488D4EAE40AF417C007D48
:100D95000A1207488D4F75500A75510AAE42AF4386
:100DA5007C007D641207488F52AE42AF437C007DC4
:100DB5000A1207487C007D0A1207488D53AE42AFE0
:100DC50043805FE52675F00A84F54D7003754D0A7D
:100DD500E52675F00A8485F04E754F0A75500AAE02
:100DE50024AF257C037DE81207488F51E551700338
:100DF50075510AAE24AF257C007D641207487C003E
:100E05007D0A1207488D52AE24AF257C007D0A125B
:100E150007487C007D0A120748ED2410F553AE24DF
:100E2500AF257C007D0A1207488D54020F0C12294C
:100E3500E88E558F56754D0A754E0A754F0A7550D1
:100E45000A7C037DE812079D8F51E55170037551AA
:100E55000AAE55AF567C037DE812079D8C558D561D
:100E6500AE55AF567C007D6412079DEF2410F552F8
:100E7500806C1233868E558F56754D0A754E0A75E0
:100E85004F0AC3E55564809480500EC3E49556F52A
:100E950056E49555F555754F0CAE55AF567C277DE7
:100EA5001012079D8F50AE55AF567C277D10120747
:100EB5009D8C558D56AE55AF567C037DE812079D2A
:100EC5008F51AE55AF567C037DE812079D8C558D2D
:100ED50056AE55AF567C007D6412079D8F52AE55B8
:100EE500AF567C007D6412079D8C558D56AE55AF6F
:100EF500567C007D0A12079D8F53AE55AF567C0078
:100F05007D0A12079D8D54E522C394084023E536DA
:100F150024FE600F14601424027016754D0A754E78
:100F25000A800E75500A75510A800675530A755464
:100F35000A85505A85515B85525C85535D85545EA3
:090F4500AB4FAD4EAF4D123080F0
:010F4E002280
:10005600E53314700302027224FD700302048D144A
:100066007003020528240360030205A17F01122BF9
:1000760018BF0116E5366012C39403500D05367D90
:10008600147C007FE87E031227947F04122B18BF8E
:100096000116E5366012D39401400D15367D147CA9
:1000A600007FE87E031227947F05122B18EF640168
:1000B6006003020184E5366401703DE548C4540FCF
:1000C60075F00AA4FFE548540F2FF54D054DE54D93
:1000D600C394184003E4F54DE54D75F00A84C45405
:1000E600F0FFE54D75F00A84EF25F0F5487D147CA8
:1000F600007FE87E03122794E5366402703DE547EB
:10010600C4540F75F00AA4FFE547540F2FF54D05AB
:100116004DE54DC3943C4003E4F54DE54D75F00ABD
:1001260084C454F0FFE54D75F00A84EF25F0F547D9
:100136007D147C007FE87E03122794E53664037005
:100146003DE546C4540F75F00AA4FFE546540F2F4B
:10015600F54D054DE54DC3943C4003E4F54DE54DA5
:1001660075F00A84C454F0FFE54D75F00A84EF2556
:10017600F0F5467D147C007FE87E031227947F020B
:10018600122B18EF64016003020251E53664017018
:100196003AE548C4540F75F00AA4FFE548540F2FFA
:1001A600F54DFF154DEF7003754D17E54D75F00ACA
:1001B60084C454F0FFE54D75F00A84EF25F0F54848
:1001C6007D147C007FE87E03122794E53664027076
:1001D6003AE547C4540F75F00AA4FFE547540F2FBC
:1001E600F54DFF154DEF7003754D3BE54D75F00A66
:1001F60084C454F0FFE54D75F00A84EF25F0F54709
:100206007D147C007FE87E03122794E53664037034
:100216003AE546C4540F75F00AA4FFE546540F2F7D
:10022600F54DFF154DEF7003754D3BE54D75F00A25
:1002360084C454F0FFE54D75F00A84EF25F0F546C9
:100246007D147C007FE87E031227947F03122B180F
:10025600EF640160030205A17D14FC7FE87E0312B2
:100266002794E536700302046E0204747F01122B94
:1002760018BF0116E5366012C39403500D05367D8E
:10028600147C007FE87E031227947F04122B18BF8C
:100296000116E5366012D39401400D15367D147CA7
:1002A600007FE87E031227947F05122B18EF640166
:1002B6006003020384E5366401703DE54CC4540FC7
:1002C60075F00AA4FFE54C540F2FF54D054DE54D8D
:1002D600C394634003E4F54DE54D75F00A84C454B8
:1002E600F0FFE54D75F00A84EF25F0F54C7D147CA2
:1002F600007FE87E03122794E5366402703DE54AE6
:10030600C4540F75F00AA4FFE54A540F2FF54D05A6
:100316004DE54DC3940C4003754D01E54D75F00A4E
:1003260084C454F0FFE54D75F00A84EF25F0F54AD4
:100336007D147C007FE87E03122794E53664037003
:100346003DE549C4540F75F00AA4FFE549540F2F43
:10035600F54D054DE54DC3941F4003754D01E54D23
:1003660075F00A84C454F0FFE54D75F00A84EF2554
:10037600F0F5497D147C007FE87E031227947F0206
:10038600122B18EF64016003020453E53664017012
:100396003AE54CC4540F75F00AA4FFE54C540F2FF0
:1003A600F54DFF154DEF7003754D63E54D75F00A7C
:1003B60084C454F0FFE54D75F00A84EF25F0F54C42
:1003C6007D147C007FE87E03122794E53664027074
:1003D6003BE54AC4540F75F00AA4FFE54A540F2FB3
:1003E600F54DFF154DEFB40103754D0CE54D75F058
:1003F6000A84C454F0FFE54D75F00A84EF25F0F544
:100406004A7D147C007FE87E03122794E536640358
:10041600703BE549C4540F75F00AA4FFE549540F33
:100426002FF54DFF154DEFB40103754D1FE54D75C5
:10043600F00A84C454F0FFE54D75F00A84EF25F008
:10044600F5497D147C007FE87E031227947F031212
:100456002B18EF640160030205A17D14FC7FE87E82
:1004660003122794E53670067536030205A1E4F5F6
:100476003678547C00FDFB7A007946FE7F0712062B
:10048600A812319F0205A17F01122B18BF010DE5AD
:1004960023D394D25006740A2523F5237F04122B06
:1004A60018BF010DE523C3943C400674F62523F5D9
:1004B600237F05122B18BF0109E52AC394FF5002BA
:1004C600052A7F02122B18BF0109E52AD394F940A9
:1004D60002152A7B007A007900E4F553F554F555A8
:1004E600AD2AAF231229907F03122B18EF64016007
:1004F600030205A11233BDBF01047F02801E123321
:10050600BDBF03167BFF7A1F792775530075549874
:100516007555F1AD2AAF231229907F01122F59028A
:1005260005A17F01122B18BF0113C3E5259438E5F9
:1005360024940450080525E525700205247F04123D
:100546002B18BF0113D3E5259477E52494034008BF
:10055600E5251525700215247F05122B18BF010904
:10056600E526C3940F500205267F02122B18BF0101
:1005760009E526D394004002152678537C007D00B9
:100586007B007A0079247E007F061206A8121FC51A
:100596007F03122B18BF0103122EDFE4FF122B1864
:1005A600EF6402702C12339678377C007D007E0053
:1005B6007F051206A8123357EF700BFB7A007937C6
:1005C6007D05FC122FA97D147C007FE87E0312278F
:0105D6009490
:0105D7002201
:1023C0007F01122C2CEF6401706B7D14FC7FE87E82
:1023D000031227940533E533D39407400375330183
:1023E000AF331233B1AD33E4FF1231FEE533B40441
:1023F00018755A0C755B0C755C0C755D0A755E0A78
:102400007B0C7D0A7F0A123080E533B405137B0014
:102410007A007900E4F553F5547555F0FDFF122963
:1024200090E533B40705E4FF122D28E533B4060523
:102430007F03122D28E4FF122C2CBF01167BFF7A9C
:102440001E79FE7D0B122CAB7D647C007FE87E0341
:042450001227942299
:1032130012334CEF700D0531FB7A00792B7D08FCDE
:04322300122E8622BF
:10000E0012314FEF700E05310531FB7A00792B7DE1
:05001E0008122CAB22CA
:03002600021D5464
:0100290022B4
:01002A0022B3
:03003E00020CA50C
:01004100229C
:01004200229B
:0333C300020056AF
:0333C6000223C01F
:10324D00120003BF010B7D647C007F467E051227B3
:02325D009422B9
:1031E8001232B2EF600F1233BDBF02047F018002BA
:0631F8007F02122F592294
:1014BF001230DD1230C01230FA12316B123060125E
:1014CF0032C17F98122DF61231B8784D7C007D0015
:1014DF007B007A0079467E007F071206A8121A86D3
:1014EF007F2B1232A27FB07E0412268E7D017F6089
:1014FF007E0912231D7BFF7A3379C67F04122717CB
:10150F007BFF7A007929E4FF1227177BFF7A007996
:10151F002A7F011227177BFF7A00793E7F0212275D
:10152F00177BFF7A0079417F031227177BFF7A32EF
:10153F00794D7F051227177BFF7A3179E87F0612E5
:10154F0027177BFF7A3379C37F071227177BFF7A21
:10155F003279137F091227177BFF7A00790E7F0AE2
:10156F001227177BFF7A0079427F081227177BFF1C
:10157F007A0079267F0B1227177D07E4FF12336B52
:10158F007552007553007554347555007556027BAE
:10159F00007A00792B7D087C00122D917552007511
:1015AF0053007554347555007556027B007A0079D7
:1015BF002B7D087C00122D5E7B007A00792B123375
:1015CF00A412280C78247C007D007E007F06120672
:1015DF00A8784D7C007D007B007A0079247E007F07
:1015EF00061206A8122FD175235A752AFCE4FF1292
:0F15FF0031178F331233B11233B7122CEA80FB3E
:093362008B88898C88898F888989
:10137F0052007A86860086860086860086860086DC
:09138F00860086860041006F090A
:03002B000233ABF2
:0633AB0053BCEFD20C320E
:0211C300156DA8
:1011C500200C0302136CC20C90006EE0B4090040C1
:1011D5000302134E9011E0F828287302122702111A
:1011E500FB02120D0212390211FB02120D021250FE
:1011F5000211FB02120DAFBDEFFEADBE7C00E42D6A
:10120500FFEC3E900070803CAFBDEFFEADBE7C00B4
:10121500E42DFFEC3E900072F0A3EFF0756501023E
:101225001354AFBDEFFEADBE7C00E42DFFEC3E9048
:1012350000748010AFBDEFFEADBE7C00E42DFFEC69
:101245003E900076F0A3EFF0021354AFBDEFFEAD74
:10125500BE7C00E42DFFEC3E900078F0A3EFF0900B
:101265000078E0FEA3E07807CEC313CE13D8F9A823
:101275006DF6C394065013A86DE675F003A4247AA1
:10128500F582E43400F583E014F090006FE014F08B
:1012950060030213547409F0A86DE4F6A86DE6FF27
:1012A500C394064003021354EF75F003A4247AF5A2
:1012B50082E43400F583E0C39480502AE6FF75F09C
:1012C50003A4247BF582E43400F583E0D3948040C5
:1012D50040EF75F003A4247CF582E43400F58374B3
:1012E50001F0F566802BA86DE6FF75F003A4247B5D
:1012F500F582E43400F583E0C394805014EF75F073
:1013050003A4247CF582E43400F5837402F0756649
:1013150001A86DE6FF75F003A4247AF582E4340094
:10132500F583E0FEEF75F003A4247BF582E4340039
:10133500F583EEF0E675F003A4247AF582E4340033
:10134500F5837486F0060212A190006E74FFF0908A
:10135500006EE0D39408400374FFF090006EE00443
:07136500F090336293F5BC28
:03136C00056D22EA
:0232EE00156D5C
:0932F000A86DA666E4F566E6FF90
:0332F900056D223E
:0232FC00156D4E
:0932FE00A86DA665E4F565E6FF84
:03330700056D222F
:102DF6008F9D75BC88439720D2AD90004574FFF037
:102E0600A37411F0A374C3F0A374FFF0A37432F09B
:102E1600A374EEF0A374FFF0A37432F0A374FCF075
:012E26002289
:07338F007B017A0079702236
:102B1800C3EF64809480403BD3EF64809485503346
:102B2800EFFD3395E0FC90007C75F003ED12099DF4
:102B3800EC75F003A42583F583E0FE90007C75F026
:102B480003ED12099DEC75F003A42583F583E4F0E9
:052B5800AF06227F031F
:012B5D002255
:042F3100156D156D98
:102F3500123374A86DA60608A607A86DE6FE08E676
:0F2F4500FF4E600BEF24FFFFEE34FFFE12337DD3
:052F5400056D056D2272
:1030600053B1EF43B2101233CCE4F5D975DA49D23B
:10307000DE90003F74FFF0A3742FF0A37431F022B0
:082794008E538F548C558D56B5
:10279C00123374EF4E7066AF56AE5512337DC3E5EF
:1027AC0054940AE5539400404BE47B18FAF9F890E2
:1027BC001F091209811208B5C006C007AE53AF54E9
:1027CC00AB07AA06E4F9F8D007D0061208B5AB0798
:1027DC00AA06AFF9EFFEADE97C00E42DFFEC3ECF8D
:1027EC002BCF3AAD07FCAF03AE02123271D2D843F5
:0F27FC00DA0180061233CC53DAFE7F02227F030C
:01280B0022AA
:0C333400123374EF4E7002FF227F012262
:101B8400E4F5809000EBE0FFB40800505F901B98F0
:101B9400F8282873021BB0021BB6021BBC021BC22E
:101BA400021BC8021BD2021BDC021BE6C2A3C2A298
:101BB4008016C2A3C2A2801AC2A3C2A2801EC2A35C
:101BC400C2A28022C2A3D2A2C2A1C2A08020C2A368
:101BD400D2A2C2A1D2A08016C2A3D2A2D2A1C2A074
:101BE400800CC2A3D2A2D2A1D2A08002D2A3C3EFFE
:101BF4006480948850299000EBE0FF3395E0FE74F4
:101C0400E22FF58274003EF583E0FF3395E0FE7425
:101C14000D2FF582741F3EF583E493F580801E90AA
:101C240000EBE0FFB408133395E0FE74E22FF58275
:101C340074003EF583E0F5808003E4F5809000E1D4
:101C4400E0FF9000EBE004FEF0D3EF6480F8EE6474
:101C540080984014E0D36480948850047408F0227F
:091C64009000E0E09000EBF0229A
:10316B00E4F5937594FF5395F043960F90002A74F2
:0B317B00FFF0A3741BF0A37484F0228B
:09336B009000E0EFF0A3EDF02268
:103080009000E2EFF0A3EDF0A3EBF0A3E55AF0A37C
:10309000E55BF0A3E55CF0A3E55DF0A3E55EF0225F
:0633B1009000EAEFF0229B
:10139800016900410116004101130541011483410F
:0313A800011583A9
:102B5E00209206900114E014F0900113E014F0702E
:102B6E00347405F0A3E0FFC39480500EA3E094806C
:102B7E004018A37401F0F5698010900115E0C3941C
:102B8E00805007A37402F0756901900115EFF09063
:052B9E0001147483F036
:012BA300220F
:02330A00156D3F
:09330C00A86DA669E4F569E6FF6D
:03331500056D2221
:1030C00090003674FFF0A37433F0A3740AF09000FC
:0D30D0003374FFF0A3742BF0A3745EF022A4
:07000300900116E0FFE4F09C
:01000A0022D3
:1013AB00016A004900F894940094940094940041CD
:0313BB0000F71E1A
:02173400156D31
:1017360020B2069000F8E014F020B3069000FBE01B
:1017460014F02097069000FEE014F09000F7E014E5
:10175600F06003021854741EF0A86DE4F6A86DE656
:10176600FFC3648094834003021854EF3395E0FE70
:101776009000F875F003EF12099DEE75F003A425AD
:1017860083F583E0C3948050399000F975F003EF38
:1017960012099DEE75F003A42583F583E0D39480AA
:1017A600405AE6FF3395E0FE9000FA75F003EF121B
:1017B600099DEE75F003A42583F5837401F0F56A9F
:1017C600803AA86DE6FF3395E0FE9000F975F003C8
:1017D600EF12099DEE75F003A42583F583E0C3940B
:1017E6008050199000FA75F003EF12099DEE75F01E
:1017F60003A42583F5837402F0756A01A86DE6FFDC
:10180600FD3395E0FC9000F875F003ED12099DECB0
:1018160075F003A42583F583E0FE9000F975F003C7
:10182600ED12099DEC75F003A42583F583EEF0EF28
:101836003395E0FE9000F875F003EF12099DEE7502
:0E184600F003A42583F5837494F00602176363
:03185400056D22FD
:02331800156D31
:09331A00A86DA66AE4F56AE6FF5D
:03332300056D2213
:1030DD0090003074FFF0A37433F0A37418F09000D7
:0D30ED002D74FFF0A37417F0A37434F022CB
:102C2C00EF600764016003BF0233EFFD3395E0FCF6
:102C3C009000FA75F003ED12099DEC75F003A425D4
:102C4C0083F583E0FE9000FA75F003ED12099DEC1C
:0F2C5C0075F003A42583F583E4F0AF06227F0310
:012C6B002246
:1013BE005500BB000000000000000000000000000F
:0C13CE0000000000000000004100BA0018
:020F4F00156D1E
:100F5100A86DE4F6A86DE6FFC364809483400302A4
:100F610011C0EF3395E0FE9000BB75F007EF120959
:100F71009DEE75F007A42583F583E0FCA3E04C709A
:100F8100030211BA9000BD75F007EF12099DEE75CD
:100F9100F007A42583F583E0FEA3E04E7003021160
:100FA100BAE6FFFD3395E0FC9000BF75F007ED1246
:100FB100099DEC75F007A42583F58374FFF5F01204
:100FC10007D345F060030211BA9000BD75F007ED3B
:100FD10012099DEC75F007A42583F583E0FAA3E0DF
:100FE100FB9000BF75F007ED12099DEC75F007A4A9
:100FF1002583F583EAF0A3EBF0EF3395E0FE900053
:10100100BB75F007EF12099DEE75F007A42583F576
:1010110083E0FCA3E0D39400EC648094804056A864
:101021006DE6FD3395E0FC9000BB75F007ED12090C
:101031009DEC75F007A42583F58374FFF5F0120785
:10104100D39000C175F007ED12099DEC75F007A46E
:101051002583F583E004F0D364809483407290008B
:10106100C175F007EF12099DEE75F007A42583F510
:1010710083E4F0805BA86DE6FFFD3395E0FC900012
:10108100BB75F007ED12099DEC75F007A42583F5FA
:1010910083E475F0011207D39000C175F007ED12DA
:1010A100099DEC75F007A42583F583E014F0C36472
:1010B100809480501BEF3395E0FE9000C175F007DE
:1010C100EF12099DEE75F007A42583F5837403F0F3
:1010D100A86DE6FFFD3395E0FC9000C175F007EDCA
:1010E10012099DEC75F007A42583F583E014603C9B
:1010F100146066147003021187240360030211B2A5
:10110100EF146010146019240260030211B2D2C1FD
:10111100C2C280299000BAE054F04401F00211B239
:101121009000BAE0540F4410F00211B2A86DE61419
:10113100601114601924027078C2C1D2C2C2C3C244
:10114100C4806E9000BAE054F04402F080639000D5
:10115100BAE0540F4420F08058A86DE614601114D1
:1011610060192402704BC2C1C2C2D2C3C2C4804141
:101171009000BAE054F04404F080369000BAE05494
:101181000F4440F0802BA86DE614601114601924FF
:1011910002701EC2C1C2C2C2C3D2C480149000BABE
:1011A100E054F04408F080099000BAE0540F448004
:0F11B100F09000BAE0FF1233B1A86D06020F559F
:0311C000056D2298
:1031B80053B3E143B41E53C0E190005474FFF0A32D
:0831C800740FF0A3744FF02214
:10207B008F6BEF3395E0FE9000BB75F007EF120905
:10208B009DEE75F007A42583F583E0FEA3E04E607B
:10209B0003022123E56B600A64016006E56B6402B1
:1020AB007076ED60737C007E037FE8120748AD6BA2
:1020BB00ED3395E0FC9000BD75F007ED12099DEC3A
:1020CB0075F007A42583F583EEF0A3EFF09000BD28
:1020DB0075F007ED12099DEC75F007A42583F583C8
:1020EB00E0FEA3E0FF9000BF75F007ED12099DEC39
:1020FB0075F007A42583F583EEF0A3EFF09000BBFA
:10210B0075F007ED12099DEC75F007A42583F58397
:0B211B00EAF0A3EBF07F02227F03221A
:102A8900EF600764016003BF023AEFFD3395E0FC94
:102A99009000BB75F007ED12099DEC75F007A425B0
:102AA90083F583E0FAA3E0FB9000BB75F007ED1214
:102AB900099DEC75F007A42583F583E4F0A3F0AE36
:072AC90002AF0322E4FEFF4F
:012AD00022E3
:102DC400EF600764016003BF0225EF3395E0FE90D6
:102DD40000BB75F007EF12099DEE75F007A425837B
:102DE400F583E0FEA3E04E60037F01227F00227F93
:022DF4000322B8
:1013DA004100000A4100290A41006D0A040E00007A
:1013EA0000000116004600670000FFFF8FFFC10AD8
:1013FA00C105C108C101C10B60240005FF33D2FF3A
:10140A0033D2FF33D2FF33D2FF33D2FF33D2FF338B
:10141A00D2FF33D2FF33D2FF33D2FF33D2FF33D2DC
:10142A006036002AFF33D2FF33D2FF33C9FF33D2EB
:10143A00FF33C9FF33D2FF33C9FF33D2FF33D2FFA1
:10144A0033D2FF33C9FF33C9FF33C9FF33C9FF336F
:0A145A00D2FF33D2FF33D2FF33D2AA
:0133D20022D8
:0333C9007F002260
:102AD100438E805389F07BE07A2879017800901F3A
:102AE10009120981122BE8EFF404F58A7BE07A28B8
:102AF10079017800901F09120981122BE8C3E49F24
:102B0100FFE49EFE74019DFDE49CFC780812095AC5
:072B11008F8CD28CD2A922A7
:03000B00022A3B8B
:042A3B00C0E0C0D067
:102A3F00D5080A75084C300A020516D20AA203728D
:102A4F00045032150AE50A702C850C0AD20730099A
:102A5F0017E50D6007150D438F018019538FFEC2C7
:102A6F00B5D51811C209800D050BE50BD39406409F
:052A7F0004D206C203B1
:052A8400D0D0D0E032CB
:1029E800300B47C20B901F09120981781012095A3F
:1029F8008E578F58900003E0FEA3E0FFE4FCFD7BB8
:102A080019FAF9F812082AC006C007AE57AF58AB32
:102A180007AA06E4F9F8D007D006122BE8780312C3
:102A2800095A900065EEF0A3EFF0900065E0FEA370
:022A3800E0FFBD
:012A3A002279
:09337400900067E0FEA3E0FF22D7
:09337D00900067EEF0A3EFF022CE
:1032710090006BEEF0A3EFF0900069ECF0A3EDF09D
:01328100222A
:0333CC00C2B42266
:03003B000221D0CF
:1021D000C0E0C083C082C0D075D000C004C005C0BC
:0321E00006C0072F
:1021E30030DF04C2DF807D30DA04C2DA807630D992
:1021F3003DC2D9AFFBEFFEADEB7C00E42DFFEC3E1F
:1022030020000E900001F0A3EFF075DB11D20080E7
:1022130053FE900001E0FCA3E0FDC3EF9DFFEE9CA5
:10222300A3F0A3EFF075DB00C200D20B803630D8E9
:1022330033C2D8900067E07002A3E06022B2B4908A
:102243000069E0FEA3E0F5EAEEF5FAA3E0FEA3E001
:10225300FF90006AE02FF0900069E03EF08005C235
:04226300B453DAFE98
:10226700D007D006D005D004D0D0D082D083D0E01C
:012277003234
:0633B700122AD1D2AF2260
:102603003004047F0180027F002009047E018002E0
:102613007E00EE5F6074E517C3950950683002369B
:10262300750D01E517131313541FAB19AA1AA91B30
:10263300F5827583001206E7FFE517540704FEEFE2
:10264300A806088002C333D8FC30D7057518038069
:102653002F751801802AAB19AA1AA91B75F002E578
:1026630017A4F58285F0831206E7F50DE51775F0DB
:1026730002A429F9EA35F0FA9000011206E7F518E9
:0A2683000517D20922C204438F108C
:01268D00222A
:101E3100900000E014F0701F740AF0D205900029A0
:101E4100E014F07012740AF0D20890006DE014F002
:101E51007005740AF0D20190002AA3E0FAA3E0F918
:101E61001209A990002DA3E0FAA3E0F91209A990A3
:101E71000039A3E0FAA3E0F91209A9900045A3E013
:101E8100FAA3E0F91209A9900054A3E0FAA3E0F93A
:101E91001209A990005DA3E0FAA3E0F91209A99043
:101EA1000005A3E0FAA3E0F91209A990004BA3E011
:101EB100FAA3E0F91209A9EF600C90001DA3E0FA62
:101EC100A3E0F91209A990004EA3E0FAA3E0F912E8
:101ED10009A9EF600C900020A3E0FAA3E0F9120930
:101EE100A9900051A3E0FAA3E0F91209A9EF600C4F
:0D1EF100900023A3E0FAA3E0F91209A92252
:1024540090003FA3E0FAA3E0F91209A9900042A377
:10246400E0FAA3E0F91209A9900033A3E0FAA3E08B
:10247400F91209A9900008A3E0FAA3E0F91209A946
:10248400900030A3E0FAA3E0F91209A9EF600C90E0
:102494000011A3E0FAA3E0F91209A9900036A3E021
:1024A400FAA3E0F91209A9EF600C900017A3E0FA6F
:1024B400A3E0F91209A9900048A3E0FAA3E0F912F5
:1024C40009A9EF600C90001AA3E0FAA3E0F912093D
:1024D400A930060EC206900026A3E0FAA3E0F91282
:0324E40009A92221
:102C6C0090000BA3E0FAA3E0F91209A990003CA391
:102C7C00E0FAA3E0F91209A9EF600C900014A3E0AC
:102C8C00FAA3E0F91209A9900057A3E0FAA3E0F91E
:0F2C9C001209A990005AA3E0FAA3E0F90209A9CE
:102EB400AF11AE10AD0FAC0E9000601209919000EE
:102EC40064E516F0E4F511F510F50FF50EF516901E
:0B2ED400000EA3E0FAA3E0F90209A938
:102CEA00300705C207122603300A05C20A121E312E
:102CFA00300505C205122454300805C208122C6C8E
:102D0A00300105C201122EB4E5112401F511E43592
:0E2D1A0010F510E4350FF50FE4350EF50E221E
:102717008B4D8A4E894FEFB40C00507090272AF8E2
:1027270028287302274E02275302275802275D02E3
:10273700276202276702276C022771022776022782
:102747007B0227800227859000058035900008804E
:102757003090000B802B90000E8026900011802176
:10276700900017801C900014801790001A80129018
:10277700001D800D900020800890002380039000AA
:0D27870026E54DF0A3E54EF0A3E54FF0224E
:073396007B017A007960223F
:07146400016C0041011700BB
:0D002E0020A409756C019001177401F022E7
:02332600156D23
:09332800A86DA66CE4F56CE6FF4B
:03333100056D2205
:1030FA0090003C74FFF0A37433F0A37426F09000A0
:0D310A003974FFF0A37400F0A3742EF022BE
:0232B200156D98
:0A32B400900117E0A86DF6FFE4F0AA
:0332BE00056D2279
:10160E0000C400DC00F701060126014A01720188C0
:10161E0001B801EE020B024B029302E403100370B9
:10162E0003DC04160497052605C800DC00F7011537
:10163E000126014A0172019F01B801EE022A024BF6
:10164E00029302E4033F037003DC0455049705265E
:10165E0005C8067D00F701150137014A0172019F89
:10166E0001D201EE022A026E029302E4033F03A4AA
:10167E0003DC045504DD057505C8067D0749010622
:10168E000126014A015D018801B801EE020B024BF1
:10169E00029302BA0310037003DC041604970526A6
:1016AE000575062006E007B80126014A0172018879
:1016BE0001B801EE022A024B029302E403100370FA
:1016CE0003DC04550497052605C8062006E007B876
:1016DE0008AA014A0172019F01B801EE022A026EA8
:1016EE00029302E4033F037003DC045504DD052678
:1016FE0005C8067D06E007B808AA09B9015D01888C
:10170E0001B801D2020B024B029302BA031003700E
:10171E0003A40416049705260575062006E007495E
:06172E00082D092D0A4DF3
:10146B004D00D3030000000000000000000000004E
:062126008F4D8D4E8B4F22
:10212C00123334EF60037F0122E54FD39400400655
:10213C00E54F94114028E54FD394174006E54F9492
:10214C0021401BE54FD394274006E54F9431400EB8
:10215C00E54FD394375007E54DC394F950037F03F3
:10216C0022E54F603DC4540F75F007A4FDACF0E5BB
:10217C004D75F015A42DFFE5F03CFEE54F54077CA2
:10218C00002FFFEC3EFEEF25E0FFEE33FE74242F14
:10219C00F58274ED3EF583E493F551740193F55299
:1021AC008005E4F551F552AF507E007C017D77122D
:1021BC000736AD4E1C120748AD07AC06AF52AE51F8
:0321CC0012279443
:0121CF0022ED
:0409AF00156D156D40
:1009B300123334EF70047F0180027F009000D3E094
:1009C300FEB402047D0180027D00ED5F6003020C32
:1009D300A0EEB4030AE49000D1F0A3F0020CA090BF
:1009E30000D4E0FFB4F3047E0180027E00EFB4F193
:1009F300047F0180027F00EF4E603E9000D6E0FE50
:100A030075F06484FFEE75F00A8475F00A84ADF026
:100A1300E075F00A84ABF0755A0A9000D5E024071C
:100A2300F55B9000D0E0FEC4540F240AF55C755DBD
:100A33000AEE5407F55E1230809000D4E0FFB4F361
:100A4300047E0180027E00EFB4F2047F0180027F06
:100A530000EF4E7003020AF99000D6E0FD7C007EA1
:100A6300177F70120748A86DA607E6F975F002A470
:100A7300FFC39000DFE09F9000DEE095F05070E050
:100A8300FEA3E0FF7C007D0B120736E9FBFD120796
:100A930048A86D08A6079000DEE475F0011207E987
:100AA300FED3E5F09BEE94004018A86D08E624F908
:100AB300FFE47EF0A807088005CEC313CE13D8F950
:100AC300801FA86D08E6FF740F7E00A80708800545
:100AD300C333CE33CED8F97804CEA2E713CE13D8DE
:100AE300F8A86D08F6A86D08E6FF1233B18007E495
:100AF3009000DEF0A3F09000DAE0FEA3E0FFC390E5
:100B030000DDE09F9000DCE09E4003020C9A12336C
:100B130034EF6003020CA09000D7E0FBA3E0FAA33C
:100B2300E0F99000DCE0FEA3E0F5828E831206E795
:100B3300FFD394375003020C35EF241024FC507973
:100B4300604524FE7003020BE0147003020BF624CD
:100B5300026003020C249000D7E0FBA3E0FAA3E0B9
:100B6300F99000DCE475F0011207D385F082F58378
:100B73001206E79000D5F09000DDE004F070989045
:100B830000DCE004F080909000D7E0FBA3E0FAA340
:100B9300E0F99000DCE475F0011207D385F082F5EB
:100BA300831206E79000D6F09000DDE004F0706E4B
:100BB3009000DCE004F0020B1A9000D7E0FBA3E006
:100BC300FAA3E0F99000DCE475F0011207E985F07F
:100BD30082F5831206E79000D4F0020B1A9000DC32
:100BE300E475F0011207D3AFF09000D1F0A3EFF05A
:100BF300020B1A9000D1E0FEA3E0FF4E60129000BA
:100C0300DCEEF0A3EFF0E49000D1F0A3F0020B1AB6
:100C13009000DDE004F070069000DCE004F0020BCD
:100C23001A9000DDE004F070069000DCE004F002AE
:100C33000B1A9000DAE0FEA3E0FFC39000DDE09F13
:100C43009000DCE09E50569000D7E0FBA3E0FAA3AF
:100C5300E0F99000DCE475F0011207E985F082F514
:100C6300831206E79000D0F09000D5E0FFA3E0FDEB
:100C7300A3E0FBA3E0FAA3E0F99000DCE475F00144
:100C83001207E985F082F5831206E7F5509000D04C
:0D0C9300E0FB12212680069000D37403F0D0
:050CA000056D056D2249
:0F32C10090004274FFF0A37409F0A374AFF022E1
:102990009000D3E0B4030DE49000DCF0A3F0A3F0CA
:1029A000A3F0C20DE55560049000D4F0EF600490F0
:1029B00000D6F0ED60049000D5F0E94A60047F0194
:1029C00080027F00E554455360047E0180027E0052
:1029D000EE5F60139000D7EBF0A3EAF0A3E9F0A359
:0829E000E553F0A3E554F022D9
:102F5900BF02047E0180027E00BF01047D01800260
:102F69007D00ED4EFEBF03047D0180027D00ED4E24
:082F790060059000D3EFF02287
:0633BD009000D3E0FF22A6
:04147B004101090121
:10318600C295E4FEEF1392CC000000D29500EFC387
:0831960013FFC2950EBE08EC08
:01319E00220E
:1031D000E4FEEFC313FF30CC03430780D295000019
:0731E00000C2950EBE08EBD2
:0131E70022C5
:102E5800F07F85122E6BA3EFF07F87122E6BA3EF06
:032E6800F07F896F
:102E6B00C296000000C295000000D2960012318677
:0A2E7B001231D0D295000000C2967B
:012E8500222A
:0330A000A3E0FDAD
:1030A300C296000000C295000000D296001231863D
:0D30B300AF05123186D295000000C29622B2
:07339D007B017A0179022295
:10319F0078027C017D017B007A0079547E007F07E5
:0931AF001206A8E4900109F022C7
:10325F00EFD3941F5009EF25E044C1FF022E6B7F7F
:02326F0001223A
:102F0800AC07AB05ECD3941F501CE4FD7F8E123048
:102F1800A3EC25E044C0FFAD031230A37D807F8E73
:092F28001230A37F00227F012278
:02227800156DE2
:10227A00900109E060447F81122E6BA86DEFF69001
:10228A000102E06F700302231AA86DE6F07F831241
:10229A002E6BA86DEFF6A3E06F6075A86DE6122E9F
:1022AA0058A3EFF07F8D122E6B900108EFF07F8B11
:1022BA00122E6B900107EFF08056900101E0FF04A7
:1022CA00F0EFC3940A4049E4F090010904F0E4FDF8
:1022DA007F8E1230A3900102E0FD7F801230A37F2F
:1022EA00821230A07F841230A0A3E0FD7F861230D4
:1022FA00A3A3E0FD7F881230A3A3E0FD7F8A1230FA
:10230A00A3A3E0FD7F8C1230A37D807F8E1230A3C1
:03231A00056D222C
:101A86007F81122E6B900102EFF07F83122E6BA3E3
:101A9600EF122E58A3EFF07F8B122E6BA3EFF07F81
:101AA6008D122E6BA3EFF0E4FD7F8E1230A37F1E06
:101AB60012325FEF64A560047F0180027F0090010F
:101AC60002E05480FEA3E0D3945940047D018002D5
:101AD6007D00ED4EFE900104E0D394A440047D0108
:101AE60080027D00ED4EFE900105E0D39431400466
:101AF6007D0180027D00ED4EFE900106E0D394123A
:101B060040047D0180027D00ED4EFE900107E0D38A
:101B1600940740047D0180027D00ED4EFE90010891
:101B2600E0D3949940047D0180027D00ED4E4F6024
:101B36003078547C007D007B007A00794D7E007FF2
:101B4600071206A812319F7DA57F1E122F08780264
:101B56007C017D017B007A00794D7E007F071206AD
:101B6600A87DA97F901230A37D807F8E1230A3902E
:0E1B7600005A74FFF0A37422F0A37478F022DA
:10328200D2C0000000D2CD000000C2C00000002267
:0D004600C2C0000000D2CD000000D2C022D8
:0B2FF60012301A123001AF0512301A21
:10300100E4FFD2CD30C009EFC394FF50030F80F429
:08301100000000C2CD00000028
:013019002294
:10301A00E4FEEF25E0FFC2CD00000092C0000000F0
:10302A00D2CD0000000EBE08E9C2CD000000D2C019
:03303A0000000093
:01303D002270
:10303E00C2CD000000D2C000E4FED2CD0000EF25CC
:10304E00E0FDA2C0E4334DFF0000C2CD000EBE086D
:01305E00E988
:01305F00224E
:1031FE00AC071232827FA012301A123001AF0412C5
:05320E002FF60200464E
:02311700AD0702
:103119001232827FA0122FF61232827FA112301A48
:0931290012300112303E12004682
:01313200227A
:0B147F0048010AD4111A50400288A551
:093227007F03123230D2C57F038F
:0A323000AE071FEE60030080F722D6
:10323A00D2A7123227C2A77F03123230C2C57F0338
:03324A000232301D
:0C334000C2A7123227D2A77F030232304E
:10313300E4FFD2C530A709EFC394FA50030F80F41C
:0C3143007F03123230C2C57F030232301D
:022F8100AD079A
:102F8300E4FBC2C57F03123230ED3392A7ED25E097
:102F9300FD1232270BBB08EAC2C57F03123230D2BF
:062FA300C57F030232307D
:022BA400156DAD
:102BA600900112E06401703712323A7F20122F81B1
:102BB600123133A86DE4F6A86DE6FFC394085017EA
:102BC600740A2FF582E43401F583E0FF122F811297
:0F2BD6003133A86D0680E0123340E4900112F015
:032BE500056D2259
:1028DB0090010CE025E025E0FFA3E0C413135403A3
:1028EB002F2466F55AE43403F559900111E0540F87
:1028FB00F55B90010FE0543FFF5403FEBE030575DB
:10290B005CFF8003E4F55CEF540CFEBE0C05755DBB
:10291B00FF8003E4F55DEF5430FFBF3005755EFFBC
:0B292B008003E4F55E7B007A00795920
:01293600227E
:101FC500D3E5549438E553940450047F0180027F8F
:101FD50000C3E5549466E553940340047E018002F2
:101FE5007E00EE5F60301228DB1207FF6554700437
:101FF500E5F065536020E554249AFD1313543F9092
:10200500010CF0ED5403FFC4333354C04410A3F066
:102015009001127401F01228DBE92402F9E43AFA7E
:102025001206CE655560047F0180027F00E555D319
:10203500940F50047E0180027E00EE5F6011E5552D
:10204500540FFF900111E054F04FF0A37401F07D9F
:102055002AE5566003430501E5576003430504E59A
:1020650058600343051090010FE06D6008EDF09096
:0520750001127401F0EE
:01207A002243
:102FD10078537C007D007B007A00794D7E007F066E
:102FE1001206A8121FC590005774FFF0A3742BF0AE
:052FF100A374A4F0220E
:1024E7008B1EAA077C007E037FE81207489000F343
:1024F700EEF0A3EFF0E51FFD7C007E037FE81207F7
:1025070048A3EEF0A3EFF0AF02AB07E4FAF9F890B7
:1025170000F3E0FEA3E0FFE4FCFD12082AEF2432FB
:10252700FFE43EFEE43DFDE43CFCE47B64FAF9F89D
:10253700122BE89000EDEEF0A3EFF0AF1EAB07E42F
:10254700FAF9F89000F5E0FEA3E0FFE4FCFD1208BD
:102557002AEF2432FFE43EFEE43DFDE43CFCE47B4D
:1025670064FAF9F8122BE89000EFEEF0A3EFF022EF
:10293700E4F550F54FF54EF54DF551D291AF50AE48
:102947004FAD4EAC4D780112096E8F508E4F8D4EA4
:102957008C4D00C291309015E4FAF9F8EF2401F597
:1029670050EA3EF54FE93DF54EE83CF54D0551E59A
:1029770051B418C700D2910000C291AF50AE4FAD0D
:082987004EAC4D780812095A0C
:01298F002225
:093386009000F1E0FEA3E0FF223B
:0F3292009000F1E0FEA3E0FFE49000F1F0A3F064
:0132A100220A
:101C6D009000ECE0700F309001221229379000F1B6
:101C7D00EEF0A3EFF09000ECE0FF64017062056000
:101C8D00E5607002055FFDD39000F4E09D9000F3D8
:101C9D00E0955F5005E4F55FF560D39000EEE095BB
:101CAD00609000EDE0955F4004D2908002C29005F7
:101CBD0062E56270020561FDD39000F6E09D900033
:101CCD00F5E095615005E4F561F562D39000F0E023
:101CDD0095629000EFE095614004D2918002C2912F
:101CED00EF6402703E2090047F0180027F00E56367
:101CFD0060047E0180027E00EE5F602130911090C5
:101D0D0000F2E004F070169000F1E004F0800E9007
:101D1D0000F2E024FFF09000F1E034FFF0A290E437
:101D2D0033F5639000ECE0B4031CE5647002D291CE
:101D3D00E564B40105C29175DB210564E564C394C6
:061D4D00C84003E4F56448
:011D5300226D
:102D28009000ECEFF07004C2918002D2919000EC18
:102D3800E0B40310E5A254CFF5A2E4F5D975DB01A0
:102D4800D2DE8003E4F5DB90005D74FFF0A3741C11
:062D5800F0A3746DF022EF
:1032A20053B1DF43B220C2B5C2098F0C438F102243
:030053000228760A
:10287600C0E0C083C082C0D075D000C000C001C017
:0328860002C0038A
:10288900200313D203756808751500756700E50CF8
:10289900C313F50A8028E56725E0F567E50BC394BE
:1028A9000340020567D56816756808AB12AA13A913
:1028B90014851582758300E5671207140515750BD4
:0128C900000E
:1028CA00D003D002D001D000D0D0D082D083D0E0C3
:0128DA0032CB
:0733A4008B128A1389142229
:0333CF00AF152215
:102E27002003047F0180027F002009047E018002C5
:102E37007E00EE5F60188B198A1A891BEDC313F5A4
:102E470009C202E4F517538FEFD2047F02227F03F2
:012E57002258
:102CAB002003047F0180027F002009047E01800243
:102CBB007E00EE5F6026538FEF750D10751808D2EE
:102CCB0009438F018B198A1A891BED75F008A4042F
:0F2CDB00F509D202E4F517D2047F02227F03220B
:10314F002003047F0180027F002009047E0180029A
:0C315F007E00EE5F60037F00227F0122F3
:10148A0057008C04B00000000000000000000000BB
:0A149A000000000001000000000047
:0300430002185749
:10185700C0E0C0F0C083C082C0D075D000C000C057
:1018670001C002C003C004C005C006C007E59A3026
:10187700E141539AFD900093E0FEA3E0FFC390007F
:1018870092E09F900091E09E501F90008EE0FBA396
:10189700E0FAA3E0F9A3E475F0011207E985F08205
:1018A700F5831206E7F59B800A900095E4F0300E69
:1018B70002C2B7E59A20E003021959539AFE900035
:1018C70096E0FBA3E0FAA3E0F990009BE0FEA3E01B
:1018D700FFF5828E83E59B1207149000A1E0FCA31D
:1018E700E0FDC3EF9DEE9C5046900099E0FEA3E01B
:1018F700FFED9FEC9E503890009EE0FBA3E0FAA31B
:10190700E0F990009BE0FEA3E0FFF5828E831206CC
:10191700E7FD900096E0FBA3E0FAA3E0F98F828E43
:10192700831206E76D600890009B74FFF0A3F090A8
:10193700009BE475F0011207D3FED390009AE0955F
:10194700F0900099E09E500A90009BE4F0A3F0A36A
:1019570004F0D007D006D005D004D003D002D001C0
:0D196700D000D0D0D082D083D0F0D0E032BC
:0232D000156D7A
:0A32D20090009DE0A86DF6FFE4F007
:0332DC00056D225B
:0133D30022D7
:10231D008E4D8F4EED42BABD0106C2B7D20E80175B
:10232D0090005D74FFF0A37433F0A374D3F0E4F563
:10233D00DBD290D291C20E759A10E47B04FAF9F8B3
:10234D00901F091209811208B5C006C007AE4DAF26
:10235D004EAB07AA06E4F9F8D007D0061208B5EF80
:10236D00F404F5D7E47B04FAF9F8901F09120981FA
:10237D001208B5C006C007AE4DAF4EAB07AA06E4B6
:10238D00F9F8D007D0061208B5C3E49FFFE49EFE0E
:10239D0074019DFDE49CFC78081209478FD6438E8D
:1023AD001443AF0190005174FFF0A37432F0A37485
:0323BD00D0F0223B
:102D5E00900096EBF0A3EAF0A3E9F0A3ECF0A3ED5C
:102D6E00F09000A1E555F0A3E556F090009EE552D7
:102D7E00F0A3E553F0A3E554F0E490009BF0A3F02C
:032D8E00A3F0228D
:102E8600900095E0702590008EEBF0A3EAF0A3E9A0
:102E9600F0E4A3F0A3F0A3ECF0A3EDF0A37401F02B
:0E2EA600300E02D2B7439A027F02227F03222F
:0B334C00900095E07002FF227F01223C
:1014A4005700A304B000000000000000000000008A
:0A14B400000000000100000000002D
:030023000219744B
:10197400C0E0C0F0C083C082C0D075D000C000C039
:1019840001C002C003C004C005C006C00730993BB3
:10199400C2999000AAE0FEA3E0FFC39000A9E09FD3
:1019A4009000A8E09E501F9000A5E0FBA3E0FAA3DE
:1019B400E0F9A3E475F0011207E985F082F58312DA
:1019C40006E7F59980059000ACE4F0209803021A2C
:1019D4006BC2989000ADE0FBA3E0FAA3E0F990009D
:1019E400B2E0FEA3E0FFF5828E83E599120714901E
:1019F40000B8E0FCA3E0FDC3EF9DEE9C50469000D0
:101A0400B0E0FEA3E0FFED9FEC9E50389000B5E0FF
:101A1400FBA3E0FAA3E0F99000B2E0FEA3E0FFF537
:101A2400828E831206E7FD9000ADE0FBA3E0FAA3EB
:101A3400E0F98F828E831206E76D60089000B2741D
:101A4400FFF0A3F09000B2E475F0011207D3FED3C7
:101A54009000B1E095F09000B0E09E500A9000B282
:101A6400E4F0A3F0A304F0D007D006D005D004D04E
:101A740003D002D001D000D0D0D082D083D0F0D017
:021A8400E0324E
:0232DF00156D6B
:0A32E1009000B4E0A86DF6FFE4F0E1
:0332EB00056D224C
:10268E008E4D8F4E759850438E40538EFE53890F4C
:10269E00E47B04FAF9F8901F091209811208B5C0FB
:1026AE0006C007AE4DAF4EAB07AA06E4F9F8D00749
:1026BE00D0061208B5EFF404F58BE47B04FAF9F8B2
:1026CE00901F091209811208B5C006C007AE4DAFA2
:1026DE004EAB07AA06E4F9F8D007D0061208B5C328
:1026EE00E49FFFE49EFE74019DFDE49CFC780812BD
:1026FE0009478F8DC2ABD28ED2AC90004E74FFF0D4
:09270E00A37432F0A374DFF02281
:102D91009000ADEBF0A3EAF0A3E9F0A3ECF0A3ED12
:102DA100F09000B8E555F0A3E556F09000B5E55276
:102DB100F0A3E553F0A3E554F0E49000B2F0A3F0E2
:032DC100A3F0225A
:102FA9009000ACE0701F9000A5EBF0A3EAF0A3E954
:102FB900F0E4A3F0A3F0A3ECF0A3EDF0A37401F007
:082FC900D2997F02227F03224E
:0B3357009000ACE07002FF227F01221A
:030000000225775F
:0C257700787FE4F6D8FD75816D0225BE6A
:1005D800E709F608DFFA8046E709F208DFFA803E05
:1005E80088828C83E709F0A3DFFA8032E309F608F2
:1005F800DFFA8078E309F208DFFA807088828C835A
:10060800E309F0A3DFFA806489828A83E0A3F6080D
:10061800DFFA805889828A83E0A3F208DFFA804CE7
:1006280080D280FA80C680D4806980F280338010BE
:1006380080A680EA809A80A880DA80E280CA803327
:1006480089828A83ECFAE493A3C8C582C8CCC5839F
:10065800CCF0A3C8C582C8CCC583CCDFE9DEE7806F
:100668000D89828A83E493A3F608DFF9ECFAA9F0EE
:10067800EDFB2289828A83ECFAE0A3C8C582C8CC44
:10068800C583CCF0A3C8C582C8CCC583CCDFEADE5D
:10069800E880DB89828A83E493A3F208DFF980CCBF
:1006A80088F0EF60010E4E60C388F0ED2402B404B8
:1006B8000050B9F582EB2402B4040050AF2323455F
:0606C80082239006287356
:1006CE00BB010689828A83E0225002E722BBFE022A
:0906DE00E32289828A83E493225D
:1006E700BB010CE58229F582E5833AF583E02250C8
:1006F70006E92582F8E622BBFE06E92582F8E22212
:0D070700E58229F582E5833AF583E493222B
:10071400F8BB010DE58229F582E5833AF583E8F01B
:10072400225006E92582C8F622BBFE05E92582C8C7
:02073400F222AF
:10073600EF8DF0A4A8F0CF8CF0A428CE8DF0A42ED7
:02074600FE2291
:10074800BC000BBE0029EF8DF084FFADF022E4CC95
:10075800F875F008EF2FFFEE33FEEC33FCEE9DEC5E
:10076800984005FCEE9DFE0FD5F0E9E4CEFD22EDA4
:10077800F8F5F0EE8420D21CFEADF075F008EF2FEE
:10078800FFED33FD4007985006D5F0F222C398FDDF
:050798000FD5F0EA227C
:10079D00C2D5EC30E709B2D5E4C39DFDE49CFCEE77
:1007AD0030E715B2D5E4C39FFFE49EFE120748C3A0
:1007BD00E49DFDE49CFC800312074830D507C3E49B
:0607CD009FFFE49EFE22E6
:1007D300C5F0F8A3E028F0C5F0F8E58215827002B1
:0607E3001583E038F0224E
:1007E900A3F8E0C5F025F0F0E582158270021583C3
:0607F900E0C838F0E82220
:1007FF00BB010A89828A83E0F5F0A3E022500687C5
:10080F00F009E71922BBFE07E3F5F009E319228986
:0B081F00828A83E493F5F074019322B9
:10082A00E88FF0A4CC8BF0A42CFCE98EF0A42CFC6D
:10083A008AF0EDA42CFCEA8EF0A4CDA8F08BF0A4EB
:10084A002DCC3825F0FDE98FF0A42CCD35F0FCEB4A
:10085A008EF0A4FEA9F0EB8FF0A4CFC5F02ECD390F
:0F086A00FEE43CFCEAA42DCE35F0FDE43CFC227C
:1008790075F008758200EF2FFFEE33FECD33CDCC36
:1008890033CCC58233C5829BED9AEC99E5829840B9
:100899000CF582EE9BFEED9AFDEC99FC0FD5F0D696
:1008A900E4CEFBE4CDFAE4CCF9A88222B800C1B9C0
:1008B9000059BA002DEC8BF084CFCECDFCE5F0CBFE
:1008C900F97818EF2FFFEE33FEED33FDEC33FCEB37
:1008D90033FB10D703994004EB99FB0FD8E5E4F9F2
:1008E900FA227818EF2FFFEE33FEED33FDEC33FCDF
:1008F900C933C910D7059BE99A4007EC9BFCE99AD3
:10090900F90FD8E0E4C9FAE4CCFB2275F010EF2F17
:10091900FFEE33FEED33FDCC33CCC833C810D70717
:100929009BEC9AE899400AED9BFDEC9AFCE899F852
:0E0939000FD5F0DAE4CDFBE4CCFAE4C8F922E5
:102BE800C2D5E830E70FB2D5E4C39BFBE49AFAE418
:102BF80099F9E498F8EC30E717B2D5122C1E1208B0
:102C0800B5E4C39BFBE49AFAE499F9E498F88003E5
:102C18001208B530D50DE4C39FFFE49EFEE49DFD88
:042C2800E49CFC220A
:10094700E8600FECC313FCED13FDEE13FEEF13FF8E
:03095700D8F122B2
:10095A00E86010ECA2E713FCED13FDEE13FEEF13B3
:04096A00FFD8F022A0
:10096E00E8600FEFC333FFEE33FEED33FDEC33FCE7
:03097E00D8F1228B
:10098100E493FC740193FD740293FE740393FF22BC
:0C099100ECF0A3EDF0A3EEF0A3EFF022D9
:0C099D00A42582F582E5F03583F5832265
:0609A9008A838982E473D9
:102583000214BFE493A3F8E493A34003F68001F29B
:1025930008DFF48029E493A3F85407240CC8C33359
:1025A300C4540F4420C8834004F456800146F6DF28
:1025B300E4800B010204081020408090136FE47E36
:1025C300019360BCA3FF543F30E509541FFEE4931D
:1025D300A360010ECF54C025E060A840B8E493A3E4
:1025E300FAE493A3F8E493A3C8C582C8CAC583CA0F
:1025F300F0A3C8C582C8CAC583CADFE9DEE780BEC7
:0114BE00002D
:00000001FF
