:03000000020147B3
:0C014700787FE4F6D8FD75812A02018E55
:10002600020F004B022300000225000002270000F9
:1000360002090001020B0001020D00010229000065
:100046000108010211000B10133F065B4F666D7D20
:09005600077F6F777C395E797138
:0B037D0012033512000E12036680FE12
:10036600E4F5937594FFF595759608C2ABD2A9D2BC
:07037600AC75AF04D2AF2209
:0F000E0053877F759850538EFE75A240D2BC2247
:10033500438E4053890F438920758B70758D70D21C
:100345008E438E805389F0438902758A70758C704F
:10035500C28DD28C438E0475D76675D6EA438E104E
:010365002275
:1002F400AB07AA067C007D02120228EC4D24FF9273
:10030400A07C007D04AF03AE021202287E007F02AF
:10031400CFCDCFCECCCE120228EE4F24FF92A1AE89
:1003240002AF037C007D04120228EE4F24FF92A248
:0103340022A6
:10006600E51015107002150F20B2080524E524705E
:1000760002052320B3080526E526700205252097EC
:10008600080528E52870020527D3E5109400E50F3A
:10009600648094804003020146C3E5249432E5233C
:1000A600648094804019E50A640145097017E508E3
:1000B60070067508017599CAE4F509F50A80067592
:1000C6000900750A01C3E5269432E525648094800B
:1000D6004025E50C6401450B7023052AE52A7002CC
:1000E6000529AE29FF7C007D0A1201D38C298D2AB1
:1000F600E4F50BF50C8006750B00750C01C3E528BD
:100106009432E52764809480401DE50E6401450D18
:10011600701BE50870047F0180027F008F08B29C87
:10012600E4F50DF50E8006750D00750E01750F00D0
:1001360075104BE4F523F524F525F526F527F52866
:010146002296
:03000B0002038865
:0903880020B703B2B532C2B53250
:030023000202B224
:1002B200C0E0C0D075D000C007309915C299E508DA
:1002C200B40106750802852A99E508B40203750887
:1002D20000309817C298E51264CA45117006AF99AA
:1002E200F5298F2AAF997511008F12D007D0D0D07F
:0202F200E032F8
:0300630002025E38
:10025E00C0E0C0F0C0D075D000C000C002C003C066
:10026E0004C005C006C007758000B2A320A3117F8D
:10027E00077E001202F47413252AF8E6F580800C2E
:10028E00E50870047F0180027F008F80120066D027
:10029E0007D006D005D004D003D002D000D0D0D0E5
:0402AE00F0D0E0327A
:1001530002037DE493A3F8E493A34003F68001F242
:1001630008DFF48029E493A3F85407240CC8C333AD
:10017300C4540F4420C8834004F456800146F6DF7C
:10018300E4800B0102040810204080900026E47EE6
:10019300019360BCA3FF543F30E509541FFEE49371
:1001A300A360010ECF54C025E060A840B8E493A338
:1001B300FAE493A3F8E493A3C8C582C8CAC583CA63
:1001C300F0A3C8C582C8CAC583CADFE9DEE780BE1B
:01005F0000A0
:1001D300BC000BBE0029EF8DF084FFADF022E4CC10
:1001E300F875F008EF2FFFEE33FEEC33FCEE9DECD9
:1001F300984005FCEE9DFE0FD5F0E9E4CEFD22ED1F
:10020300F8F5F0EE8420D21CFEADF075F008EF2F68
:10021300FFED33FD4007985006D5F0F222C398FD59
:050223000FD5F0EA22F6
:10022800C2D5EC30E709B2D5E4C39DFDE49CFCEEF1
:1002380030E715B2D5E4C39FFFE49EFE1201D3C395
:10024800E49DFDE49CFC80031201D330D507C3E490
:060258009FFFE49EFE2260
:00000001FF
