:0C0423003F065B4F666D7D077F6F400059
:10031B00C10DC105C107C10CC102C10BC180010DCB
:10032B0000011300011700010C0001100001140063
:10033B00011500011600010F00011201011101C18D
:10034B0081C188C183C189C184C18AC106010B00E7
:06035B00010E00010A0181
:100362001203D8E4F50E300D05C20D12000A300555
:1003720005C20512040F300705C207120003300C34
:1003820005C20C120433300205C20212042F300BD4
:0B039200D53000D2C20B12043680CB25
:03000B0002039D50
:10039D00C0E0C0D0D20D050DE50DB40A07750D00F6
:1003AD00D2050513E513B40A07751300D207051717
:1003BD00E517B40A07751700D20C050CE50CB40A45
:0B03CD0005750C00D202D0D0D0E03249
:1003D8007594FFE4F593F58075960FF59575B4FF60
:1003E80075B3E175C0E1438E805389F0758A9175C4
:1003F8008CFFD2AFD2A9C28DD28C751486751586A2
:07040800751686750F0A222C
:01000A0022D3
:10040F00050BE51175F032A4B50B08E4B5F004F552
:04041F000BD20B22CF
:070003007D077F0702029C4C
:03043300020218AA
:0304360002019030
:04042F0085111222FF
:04029C008F228D23FD
:1002A00078247C007D007BFF7A0479237E007F0C1C
:1002B0001200DEE5A054F04509F5A0E508703FE521
:1002C00009B4090050389002CDF82828730202EAD8
:1002D0000202EA0202EA0202EA0202EA0202EA0276
:1002E00002EA0202EF0202F98000852F8080127478
:1002F000242512F8E6F5808008850E808003E4F559
:10030000800509E50970020508D395237480F86516
:0A03100008984006750800852209D0
:01031A0022C0
:1002180020B202151420B3021515209702151615E1
:100228000FE50F706EE514C394805011C2013008B9
:100238000CC2080511E511B40503751101E514C3D5
:1002480094804007D201200802D208E515C39480A3
:100258005009C203300904C209B206E515C39480E7
:100268004007D203200902D209E516C39480500939
:10027800C204300A04C20AB200E516C394804007DB
:10028800D204200A02D20A75148675158675168658
:04029800750F0A22B2
:10019000200641AF0A050AEF24FE600E1460111418
:1001A00060182403701ED2C1801CC2C1D2C2801844
:1001B000C2C1C2C2D2C3C2C48012C2C1C2C2C2C3FF
:1001C000D2C48008C2C1C2C2C2C3C2C4E50A6405A7
:1001D00070458040AF0A050AEF24FE601414601BCE
:1001E00014601E24037020C2C1C2C2C2C3D2C48024
:1001F0001EC2C1C2C2D2C3C2C48014C2C1D2C28094
:100200000AD2C1C2C28004C2C1C2C2C2C3C2C4E552
:070210000AB40503750A01A1
:0102170022C4
:03000000020104F6
:0C010400787FE4F6D8FD75812F02014BD6
:10000E00E709F608DFFA8046E709F208DFFA803ED4
:10001E0088828C83E709F0A3DFFA8032E309F608C1
:10002E00DFFA8078E309F208DFFA807088828C8329
:10003E00E309F0A3DFFA806489828A83E0A3F608DD
:10004E00DFFA805889828A83E0A3F208DFFA804CB7
:10005E0080D280FA80C680D4806980F2803380108E
:10006E0080A680EA809A80A880DA80E280CA8033F7
:10007E0089828A83ECFAE493A3C8C582C8CCC5836F
:10008E00CCF0A3C8C582C8CCC583CCDFE9DEE7803F
:10009E000D89828A83E493A3F608DFF9ECFAA9F0BE
:1000AE00EDFB2289828A83ECFAE0A3C8C582C8CC14
:1000BE00C583CCF0A3C8C582C8CCC583CCDFEADE2D
:1000CE00E880DB89828A83E493A3F208DFF980CC8F
:1000DE0088F0EF60010E4E60C388F0ED2402B40488
:1000EE000050B9F582EB2402B4040050AF2323452F
:0600FE00822390005E73F6
:10011000020362E493A3F8E493A34003F68001F2A0
:1001200008DFF48029E493A3F85407240CC8C333F0
:10013000C4540F4420C8834004F456800146F6DFBF
:10014000E4800B010204081020408090031BE47E31
:10015000019360BCA3FF543F30E509541FFEE493B4
:10016000A360010ECF54C025E060A840B8E493A37B
:10017000FAE493A3F8E493A3C8C582C8CAC583CAA6
:10018000F0A3C8C582C8CAC583CADFE9DEE780BE5E
:01036100009B
:00000001FF
