:03000000020100FA
:0100030032CA
:0100130032BA
:02000B0061D1C1
:100100007593007594FF7595007596097530147593
:10011000313275321475343C75353C753618C20071
:10012000C201C202C204C205C206C220C221C2224A
:10013000C223C224C225C226C227D218D219D21A7B
:10014000D21BD21CD21DD21ED21F75471475488CEB
:1001500075498C754A8C754B8C754C8C754D8C75AE
:100160004E8C754F8C75590175580875570175403F
:1001700000754100754200754300754400754500E7
:1001800075460A755A0B755E05755D00755C0075E0
:100190005B00758922758780758CD2D288D28AD20D
:1001A0008C75A8821000291001281002271004263F
:1001B00010052510062410202310212210222110C2
:1001C000232010241F10251E10261D10271C80D44C
:1001D000807C807C618D618F61A561BB80108038DF
:1001E00080608060806080608060806080B6055B39
:1001F000E55BB40A21755B00055CE55CB40A177524
:100200005C00055DE55DB40A0D755D00055EE55EAB
:10021000B40A03755E00808C155BE55BB4FF217545
:100220005B09155CE55CB4FF17755C09155DE55D60
:10023000B4FF0D755D09155EE55EB4FF03755E09DB
:1002400021A421A421A421A421A421A421A421A486
:10025000758000C2A3E559B4FF0F7401A8570803C5
:0F026000D8FD855880D2A3801A54F87016E55740
:10026F00232323255990036993F8E690038193F58F
:10027F00808559A00559E559B558037559FF20B226
:10028F0002154820B3021549D54717754714E5489D
:10029F0075488C33921020100B30180DC218D220D5
:1002AF00800721A4201802D218E54975498C339292
:1002BF001120110930190BC219D221800520190202
:1002CF00D219E54A754A8C339212201209301A0B53
:1002DF00C21AD2228005201A02D21AE54E754E8C10
:1002EF00339216201609301E0BC21ED2268005200F
:1002FF001E02D21EE54C754C8C339214201409301B
:10030F001C0BC21CD2248005201C02D21CE54D758B
:10031F004D8C339215201509301D0BC21DD225802F
:10032F0005201D02D21DE54E754E8C3392162016F8
:10033F0009301E0BC21ED2268005201E02D21EE5DA
:10034F004F754F8C339217201709301F0BC21FD2D6
:10035F00278005201F02D21F21A445444643424651
:10036F0041405A5A5A5A5E5D5C5B4646465746466E
:10037F0046403F065B4F666D7D077F6F400021A4AF
:10038F000540E540B40A0D7540000541E541B4064E
:10039F000375410021A40542E542B40A0D754200E0
:1003AF000543E543B4060375430021A40544E54422
:1003BF00B40A0D7544000545E545B40203754500C3
:1003CF0021A4D200D53025753014D201D5311D7539
:0C03DF003132D202D53215753214D2042E
:1003EB00D5340D75343CD205D5350575353CD20663
:0103FB0032CF
:00000001FF
