:10000E001520211022102315240523102110222043
:10001E002110161021401520211022102310230527
:10002E00240525102110241523052510220523054E
:10003E0023052205223023202510311027152605F1
:10004E0026202510250526052710260525052340E3
:10005E0024152405251026102510240523052220FD
:10006E001710170516051510161021400000210552
:10007E00210521052305250525052505250526052B
:10008E0026052605310525202405240524052605EB
:10009E002305230523052305220522052205220516
:1000AE0025152505210521052105230525052505F0
:1000BE0025052505260526052605310525202405B9
:1000CE0024052405260521052105210523052505E1
:1000DE002505250525052605260526053105252098
:1000EE0024052405240523032303230323032305C7
:1000FE0023052205220522052305212000001605D1
:10010E00170521151705211023101730231016156A
:10011E00150516102110153013101415130514059E
:10012E00210521101330211017101405141017106B
:10013E001720FF1605170521151705211023101777
:10014E00301305130516151505161021101530134D
:10015E001014102105170517102110221023052148
:10016E0020FF210517051610171015101620FF2158
:10017E0005220523152210231024102505223015E3
:10018E00102203210317032103211021052210231E
:10019E0005234016051705211017052105221021EC
:1001AE0015150515202410231022102110233016AA
:1001BE0005170521151705211023101730131016DA
:1001CE0015150516102110153013101410210517D2
:1001DE0005171021102210230521052120210517B6
:1001EE000516101710151016400000F88CF95BFA62
:1001FE0015FA67FB04FB90FC0CFC44FCACFD09FDFE
:10020E0034FD82FDC8FE06FE22FE56FE6EFE9AFEEE
:05021E00C1FEE4FF0336
:09049800010A00010C000108003A
:10042900D3EF9400EE940040147D7C7C00ED1D70A8
:0D043900011CED4C70F7EF1F70E61E80E314
:010446002293
:04040200E50A93FF75
:10040600EFC4540FFEEF540FFFBE0104E4FE800C50
:10041600BE02047E0E8005BE03027E1CEF1425E09C
:020426002EFFA7
:0104280022B1
:10022300E5086004C2B480F8E50C7040E50A90006C
:100233000E93FA70030202CBBAFF030202D79000B7
:100243000E120402AB07EB9001F993F509EBA393AC
:10025300F50B050A85098C850B8AE50A90000E9338
:10026300F9050AD28CE975F0B4020312E50C6401B6
:100273007044E50A90007C93FA7002804BBAFF0247
:10028300805290007C120402AB07EB9001F993F5C6
:1002930009EBA393F50B050A85098C850B8AE50AFF
:1002A30090007C93F9050AD28CE9FF7E007C017DE6
:1002B3002C120486805DE50C64026003020223E5D0
:1002C3000A90010C93FA7009F50A7FE87E03020491
:1002D30029BAFF0C050A7F647E00120429C28C220E
:1002E300E50A90010C93FF120406AB07EB9001F9AA
:1002F30093F509EBA393F50B050A85098C850B8A06
:10030300E50A90010C93F9050AD28CE975F0C8A4AB
:0D031300FFAEF0120429C28CC2B402022316
:100447007594FFE4F593759608F59575B210F5B1B7
:09045700F5B4F5B3F5CAF5C922AC
:10046000758901758CD8758AEF75A88775B801C232
:040470008CC2B42264
:030003000203AC49
:1003AC00C0E0C0D075D000C004C005C006C0072096
:1003BC00B20D7F0A7E0012042920B2036308FFD01D
:0C03CC0007D006D005D004D0D0D0E0321D
:10047400120447120460E4F580D2A4C200120223DD
:0204840080FBFB
:03000B000203D815
:1003D800C0E0C0D085098C850B8AE508B40104C249
:1003E800B48012B2B420A40D750A00050CE50CB453
:0A03F8000303750C00D0D0D0E032F2
:03000000020320D8
:0C032000787FE4F6D8FD758120020367A9
:10048600EF8DF0A4A8F0CF8CF0A428CE8DF0A42E8A
:02049600FE2244
:10032C00020474E493A3F8E493A34003F68001F26F
:10033C0008DFF48029E493A3F85407240CC8C333D2
:10034C00C4540F4420C8834004F456800146F6DFA1
:10035C00E4800B0102040810204080900498E47E95
:10036C00019360BCA3FF543F30E509541FFEE49396
:10037C00A360010ECF54C025E060A840B8E493A35D
:10038C00FAE493A3F8E493A3C8C582C8CAC583CA88
:10039C00F0A3C8C582C8CAC583CADFE9DEE780BE40
:0104A100005A
:00000001FF
