:03000000020203F6
:0C020300787FE4F6D8FD75813F02024AC6
:10037F00022A004B021000000212000002140000BB
:10038F00020A0001020C0001020E0001101600000B
:10039F000000000000000000000000000000022824
:1003AF00000102080000023E00000226000B102E82
:1003BF003F065B4F666D7D077F6F777C395E797186
:0B00570012002612000E12041180FEA1
:0F000E0053877F759850538EFE75A240D2BC2247
:10002600438E4053890F438920758B70758D70D22E
:100036008E438E805389F0438902758A70758C7061
:10004600C28DD28C438E0475D76675D6EA438E1060
:010056002287
:10041100E4F5937594FFF595759608C2A3C2ABD226
:09042100A9D2AC75AF04D2AF22E0
:1003D000AB07AA067C007D0212028FEC4D24FF922F
:1003E000A07C007D04AF03AE0212028F7E007F026C
:1003F000CFCDCFCECCCE12028FEE4F24FF92A1AE46
:1004000002AF037C007D0412028FEE4F24FF92A204
:0104100022C9
:10006600E52B152B7002152A20B2080511E5117033
:1000760002051020B3080513E51370020512209738
:10008600080515E51570020514D3E52B9400E52A3D
:10009600648094804003020152C3E5119432E51056
:1000A600648094804013E50B6401450A7011C29C7C
:1000B6007599CAF50AF50B8006750A00750B01C31A
:1000C600E5139432E512648094804032E50D6401B4
:1000D600450C703074089529FF25E02416F80806AB
:1000E600E618700106EF25E02416F8C00008E6546D
:1000F6000FD000760008F6E4F50CF50D8006750CB9
:1001060000750D01C3E5159432E5146480948040B2
:1001160022E50F6401450E70200529E529700205C8
:1001260028640945287005F528752901E4F50EF5BA
:100136000F8006750E00750F01752A00752B4BE4AE
:0D014600F510F511F512F513F514F515225D
:03000B0002042AC2
:09042A0020B703B2B532C2B532AD
:0300230002015384
:10015300C0E0C0D075D000C000C00730994AC29932
:10016300C3E5099529E5286480F8E508648098507B
:1001730018C37407950925E02416F808E6F59905D0
:1001830009E50970230508801FE509B52912E5086B
:10019300B5280D0509E5097002050875995580080C
:1001A300750800750900D29C30984CC298AF9975B8
:1001B30026008F27E527645545267007F53EF53F52
:1001C30075AF04E53F453E6019AF99C374079529A0
:1001D30025E02416F8760008A6070529E52970020C
:1001E3000528E52764CA4526700DF53E753F01F5E0
:1001F300AFF580F528F529D007D000D0D0D0E03274
:0300630002031A7B
:10031A00C0E0C0F0C0D075D000C000C002C003C0A9
:10032A0004C005C006C007758000E52D2401FFE45E
:10033A00352CFEAC28AD2912028F8C2C8D2DC3745E
:10034A0007952DFFE4952CFE1203D0C37407952D53
:10035A0025E02416F808E6242EF8E6F58012006651
:10036A00D007D006D005D004D003D002D000D0D018
:05037A00D0F0D0E032DC
:10020F00020057E493A3F8E493A34003F68001F2AE
:10021F0008DFF48029E493A3F85407240CC8C333F0
:10022F00C4540F4420C8834004F456800146F6DFBF
:10023F00E4800B010204081020408090037FE47ECD
:10024F00019360BCA3FF543F30E509541FFEE493B4
:10025F00A360010ECF54C025E060A840B8E493A37B
:10026F00FAE493A3F8E493A3C8C582C8CAC583CAA6
:10027F00F0A3C8C582C8CAC583CADFE9DEE780BE5E
:0103CF00002D
:10028F00C2D5EC30E709B2D5E4C39DFDE49CFCEE8A
:10029F0030E715B2D5E4C39FFFE49EFE1202C5C33B
:1002AF00E49DFDE49CFC80031202C530D507C3E436
:0602BF009FFFE49EFE22F9
:1002C500BC000BBE0029EF8DF084FFADF022E4CC1D
:1002D500F875F008EF2FFFEE33FEEC33FCEE9DECE6
:1002E500984005FCEE9DFE0FD5F0E9E4CEFD22ED2C
:1002F500F8F5F0EE8420D21CFEADF075F008EF2F76
:10030500FFED33FD4007985006D5F0F222C398FD66
:050315000FD5F0EA2203
:00000001FF
