:03000000020003F8
:0C000300787FE4F6D8FD75811A02004AEF
:1000CC000210000009123F065B4F666D7D077F082A
:0900DC00080001020304050607F7
:0B00E600EF1FAC0670011E4C70F622EC
:10008F007596FFE4F5957594FFF593E4F510F5116A
:10009F00E4F580AF1174082FF8E6F5A074132FF86C
:1000AF00E6F5807F587E021200E60511E511700219
:0D00BF000510C39408E510940040D580CED4
:10000F0002008FE493A3F8E493A34003F68001F278
:10001F0008DFF48029E493A3F85407240CC8C333F2
:10002F00C4540F4420C8834004F456800146F6DFC1
:10003F00E4800B01020408102040809000CCE47E85
:10004F00019360BCA3FF543F30E509541FFEE493B6
:10005F00A360010ECF54C025E060A840B8E493A37D
:10006F00FAE493A3F8E493A3C8C582C8CAC583CAA8
:10007F00F0A3C8C582C8CAC583CADFE9DEE780BE60
:0100E500001A
:00000001FF
