:03000000020100FA
:0100030032CA
:0100130032BA
:02000B00619CF6
:100100007593007594FF75950075960175B100752E
:10011000B21075301475313275321475343C753542
:100120003C753618C200C201C202C204C205C20632
:10013000C220C221C222C223C224C225C226C22793
:10014000D218D219D21AD21BD21CD21DD21ED21F43
:1001500075471475488C75498C754A8C754B8C7530
:100160004C8C754D8C754E8C754F8C75590175582E
:1001700008755700754000754100754200754300D1
:1001800075440075450075460A755A0BC228755BA3
:1001900000758922758780758CD2D288D28AD28CDC
:1001A00075A88210002910012810022710042610BB
:1001B00005251006241020231021221022211023AF
:1001C0002010241F10251E10261D10271C80D480EF
:1001D0003880486158615A617061868010801A8049
:1001E0001C801C801C801C801C801C80B6055BE56C
:1001F0005BB40A03755B0080AAB22880A680A48045
:10020000A280A0809E809C809A202804C2B480098D
:10021000DB07B2B4E55B2405FB8088758000C2A3D0
:10022000E559B4FF0F7401A8570803D8FD8558801D
:10023000D2A3801A54F87016E5572323232559902A
:10024000033493F8E690034C93F5808559A0055943
:10025000E559B558037559FF20B202154820B3027D
:100260001549D54717754714E54875488C339210E2
:1002700020100B30180DC218D220800721A320189F
:1002800002D218E54975498C3392112011093019B1
:100290000BC219D2218005201902D219E54A754AEC
:1002A0008C339212201209301A0BC21AD222800506
:1002B000201A02D21AE54E754E8C3392162016097A
:1002C000301E0BC21ED2268005201E02D21EE54C17
:1002D000754C8C339214201409301C0BC21CD22490
:1002E0008005201C02D21CE54D754D8C33921520E3
:1002F0001509301D0BC21DD2258005201D02D21DFF
:10030000E54E754E8C339216201609301E0BC21E18
:10031000D2268005201E02D21EE54F754F8C3392E7
:1003200017201709301F0BC21FD2278005201F027C
:10033000D21F21A35A5A5A5A5A5A5A5B5A5A5A5ACF
:100340005E5D5C5B46464657464646403F065B4F11
:10035000666D7D077F6F400021A30540E540B40A2C
:100360000D7540000541E541B4060375410021A328
:100370000542E542B40A0D7542000543E543B40663
:100380000375430021A30544E544B40A0D754400F8
:100390000545E545B4020375450021A3D200D530DB
:1003A00025753014D201D5311D753132D202D532C6
:1003B00015753214D204D5340D75343CD205D535BB
:0703C0000575353CD2063241
:00000001FF
