:100C3000003F0006005B004F0066006D007D00076E
:100C4000007F006F0077007C0039005E0079007142
:040C50000040000060
:100C7100020A000102120001C180C184C181C18543
:060C8100C182C186C1031F
:100B62007594FFE4F59375B43F75B3E175C0E17513
:100B72009607F59575A007F50C750DC2F50E750F64
:100B8200C2F5107511C2F508750964F58EF58975FF
:100B92008A06758CFFAE0AAF0B7C137D8812092082
:100BA200E4C39FFFE49EFE74019400FDE49400FC04
:100BB200E4FB7A01F9F8120BEC8F8DAE0AAF0B7CD5
:100BC200137D88120920E4C39FFFE49EFE74019402
:100BD20000FDE49400FCE4FB7A01F9F8120BECAF9F
:0A0BE200038F8B75885075A88A22D6
:03001B00020800D8
:10080000C0E0C0F0C083C082C0D075D000C000C0BE
:1008100001C002C003C004C005C006C007AE0AAFD5
:100820000B7C137D88120920E4C39FFFE49EFE74B5
:10083000019400FDE49400FCE4FB7A01F9F8120B4A
:10084000EC8F8DAE0AAF0B7C137D88120920E4C3B8
:100850009FFFE49EFE74019400FDE49400FCE4FB21
:100860007A01F9F8120BECAF038F8B20034A0513C2
:10087000E513AE127002051214FFEE7031EF24FE84
:10088000601014601714601E24037022D2C1C2C20B
:100890008004C2C1D2C2C2C3C2C48012C2C1C2C219
:1008A000D2C3C2C48008C2C1C2C2C2C3D2C4E5138B
:1008B00064054512704F80480513E513AE127002AF
:1008C000051214FFEE7031EF24FE601414601B1447
:1008D000601E24037022C2C1C2C2C2C3D2C4801827
:1008E000C2C1C2C2D2C3C2C4800EC2C1D2C28004BD
:1008F000D2C1C2C2C2C3C2C4E513640545127005A9
:10090000F512751301D007D006D005D004D003D05E
:1009100002D001D000D0D0D082D083D0F0D0E0324D
:03000B00020A00E6
:100A0000C0E0C0D020B208E50D150D7002150C2015
:100A1000B308E50F150F7002150E209708E51115A4
:100A20001170021510E509150970021508E5094550
:100A3000086003020AD1C3E50F9480E50E940050CC
:100A40001AC201300515C205050BE50B7002050A37
:100A5000640C450A7005F50A750B01C3E50F948017
:100A6000E50E94004007D201200502D205C3E50D32
:100A70009480E50C94005009C200300404C204B212
:100A800003C3E50D9480E50C94004007D2002004D8
:100A900002D204C3E5119480E51094005009C2020B
:100AA000300604C206B28EC3E5119480E5109400AE
:100AB0004007D202200602D206750C00750DC275E1
:100AC0000E00750FC27510007511C275080075090A
:060AD00064D0D0D0E0323A
:100C5400120B62E50B25E0FFE50A33FE74302FF535
:0D0C640082740C3EF583740193F58080E6E8
:03000000020AD61B
:0C0AD600787FE4F6D8FD758120020B1D2E
:10092000EF8DF0A4A8F0CF8CF0A428CE8DF0A42EEB
:02093000FE22A5
:100BEC00C2D5E830E70FB2D5E4C39BFBE49AFAE434
:100BFC0099F9E498F8EC30E717B2D5120C221209E7
:100C0C006EE4C39BFBE49AFAE499F9E498F8800348
:100C1C0012096E30D50DE4C39FFFE49EFEE49DFDEA
:040C2C00E49CFC2226
:100AE200020C54E493A3F8E493A34003F68001F2CA
:100AF20008DFF48029E493A3F85407240CC8C33315
:100B0200C4540F4420C8834004F456800146F6DFE3
:100B1200E4800B0102040810204080900C71E47EF6
:100B2200019360BCA3FF543F30E509541FFEE493D8
:100B3200A360010ECF54C025E060A840B8E493A39F
:100B4200FAE493A3F8E493A3C8C582C8CAC583CACA
:100B5200F0A3C8C582C8CAC583CADFE9DEE780BE82
:010C8700006C
:1009320075F008758200EF2FFFEE33FECD33CDCC7C
:1009420033CCC58233C5829BED9AEC99E5829840FF
:100952000CF582EE9BFEED9AFDEC99FC0FD5F0D6DC
:10096200E4CEFBE4CDFAE4CCF9A88222B800C1B906
:100972000059BA002DEC8BF084CFCECDFCE5F0CB44
:10098200F97818EF2FFFEE33FEED33FDEC33FCEB7D
:1009920033FB10D703994004EB99FB0FD8E5E4F938
:1009A200FA227818EF2FFFEE33FEED33FDEC33FC25
:1009B200C933C910D7059BE99A4007EC9BFCE99A19
:1009C200F90FD8E0E4C9FAE4CCFB2275F010EF2F5E
:1009D200FFEE33FEED33FDCC33CCC833C810D7075E
:1009E2009BEC9AE899400AED9BFDEC9AFCE899F899
:0E09F2000FD5F0DAE4CDFBE4CCFAE4C8F9222C
:00000001FF
