:0300000002000EED
:0C000E00787FE4F6D8FD758108020055EB
:03000300010801F0
:1000CC00438E805389F0438902758A70758C70C297
:0400DC008DD28C2213
:0C00EF007F057E347DC3DDFEDEFCDFFA01
:0100FB0022E2
:03000B000200E010
:0F00E000C0E0E5087004B2B58002C2B5D0E032CE
:10009A007594FFE4F5937596FFF595F580D2A31252
:1000AA0000CCD2A9D2AF20B6047F0180027F008F94
:1000BA008020B2F2E4F5081200EF7508011200EF91
:0200CA0080EFC5
:10001A0002009AE493A3F8E493A34003F68001F262
:10002A0008DFF48029E493A3F85407240CC8C333E7
:10003A00C4540F4420C8834004F456800146F6DFB6
:10004A00E4800B0102040810204080900003E47E43
:10005A00019360BCA3FF543F30E509541FFEE493AB
:10006A00A360010ECF54C025E060A840B8E493A372
:10007A00FAE493A3F8E493A3C8C582C8CAC583CA9D
:10008A00F0A3C8C582C8CAC583CADFE9DEE780BE55
:0100060000F9
:00000001FF
