:03000000020003F8
:0C000300787FE4F6D8FD75811E02004AEB
:1000ED0009083F065B4F666D7D077F08130001020F
:0F00FD000304050607011C0102110000011B008E
:0E012500E4F5937594FFF595759608C2A32234
:04010D00EF4E60133E
:10011100751D0B751EBED51EFDD51DFAEF1F70ECAA
:010121001EBF
:0301220080E9224F
:10008F00120125C2A3E4F51BE4F5807413251BF8B8
:10009F00E6F5A07409251BF8E6F5807F017E0012B6
:1000AF00010D051BE51BC3940840DD0512E5127019
:1000BF00020511D2A3851C807F017E0012010DE580
:1000CF00126432451170BCE51CB48005751C0180AB
:0E00DF0006E51C25E0F51CE4F511F51280A5E0
:10000F0002008FE493A3F8E493A34003F68001F278
:10001F0008DFF48029E493A3F85407240CC8C333F2
:10002F00C4540F4420C8834004F456800146F6DFC1
:10003F00E4800B01020408102040809000EDE47E64
:10004F00019360BCA3FF543F30E509541FFEE493B6
:10005F00A360010ECF54C025E060A840B8E493A37D
:10006F00FAE493A3F8E493A3C8C582C8CAC583CAA8
:10007F00F0A3C8C582C8CAC583CADFE9DEE780BE60
:01010C0000F2
:00000001FF
