:03000000020AC72A
:0C0AC700787FE4F6D8FD75811D020B0E4F
:100B7400021C000004160000000002100000021411
:0A0B84000001021A00010212000035
:0F0B8F00759DFFE4F5BDF5BE75BC8C75972022F2
:03002B000209E8DF
:1009E800C0E0C0F0C083C082C0D075D0080513E550
:1009F800137002051275A800D3E51394C4E5129488
:100A080009407CE51C13FEE51D13FFEF2519FFEED9
:100A18003518FEE43517FDE43516FCC00EC00FAEE0
:100A28001CAF1DAB0FAA0EE4F9F8D00FD00E1209B7
:100A3800488E1A8F1B7519007518007517007516E2
:100A480000751C00751D00751200751300AC1AADF9
:100A58001BAE14AF151208B7AC0EAD0FE412087E2A
:100A68007B667A6679A6783F12080050066311FF04
:100A78006310FF751200751300851A14851B150580
:100A88001DE51D7002051CAFBDEFFEADBE7C00E488
:100A98002DFFEC3EFEE4FDE5192FF519E5183EF5AE
:100AA80018ED3517F517EC3516F51653BCEF43BCA2
:0F0AB8000875A8A0D0D0D082D083D0F0D0E03283
:100B5300E4F5937594FFF595759608D2A375A8A04F
:100B6300120B8FE4F580E511451060F77580558011
:010B7300F28F
:1008000074F8CC6480CCC86480C8F58204604FC39F
:10081000EB9FF5F0EA9E42F0E99D42F0E89C45F03E
:10082000603C501DE5825FFFE582D313CB5BCBF4C8
:100830002B5582FB50280ABA002409B900200880F1
:100840001DE5825BFBE582D313CF5FCFF4C3132F8B
:100850005582FF50090EBE00050DBD00010CC3EB13
:100860009FF5F0EA9E42F0E99D42F0E89C45F06079
:0908700007CC4820E701B3EC229B
:1008790075F020800E75F010800575F0087D007EFA
:10088900007F003392D530D5031209DAEC334010DA
:10089900EF33FFEE33FEED33FDEC33FCD5F0ED2203
:0E08A900E5F0247EA2D513CC92E7CDCEFF223F
:100AD300020B53E493A3F8E493A34003F68001F2DB
:100AE30008DFF48029E493A3F85407240CC8C33324
:100AF300C4540F4420C8834004F456800146F6DFF3
:100B0300E4800B0102040810204080900B74E47E03
:100B1300019360BCA3FF543F30E509541FFEE493E7
:100B2300A360010ECF54C025E060A840B8E493A3AE
:100B3300FAE493A3F8E493A3C8C582C8CAC583CAD9
:100B4300F0A3C8C582C8CAC583CADFE9DEE780BE91
:010B8E000066
:1008B700BC000BBE0029EF8DF084FFADF022E4CC25
:1008C700F875F008EF2FFFEE33FEEC33FCEE9DECEE
:1008D700984005FCEE9DFE0FD5F0E9E4CEFD22ED34
:1008E700F8F5F0EE8420D21CFEADF075F008EF2F7E
:1008F700FFED33FD4007985006D5F0F222C398FD6F
:050907000FD5F0EA220B
:10090C0075F008758200EF2FFFEE33FECD33CDCCA2
:10091C0033CCC58233C5829BED9AEC99E582984025
:10092C000CF582EE9BFEED9AFDEC99FC0FD5F0D602
:10093C00E4CEFBE4CDFAE4CCF9A88222B800C1B92C
:10094C000059BA002DEC8BF084CFCECDFCE5F0CB6A
:10095C00F97818EF2FFFEE33FEED33FDEC33FCEBA3
:10096C0033FB10D703994004EB99FB0FD8E5E4F95E
:10097C00FA227818EF2FFFEE33FEED33FDEC33FC4B
:10098C00C933C910D7059BE99A4007EC9BFCE99A3F
:10099C00F90FD8E0E4C9FAE4CCFB2275F010EF2F84
:1009AC00FFEE33FEED33FDCC33CCC833C810D70784
:1009BC009BEC9AE899400AED9BFDEC9AFCE899F8BF
:0E09CC000FD5F0DAE4CDFBE4CCFAE4C8F92252
:0E09DA00C3E49FFFE49EFEE49DFDE49CFC222E
:00000001FF
