:100E110000A8C0003F065B4F666D7D077F6F00082D
:100E210040014148777C395E79713D76300E385406
:100E31005C736750783E1C6EBF86DBCFE6EDFD87A5
:100E4100FFEF001025103110321033303208310815
:100E51003220311026103140310826082508230898
:100E61002108160815081308F61520211022102351
:100E710018240823102110222021101610214015BA
:100E810020211022102310230824082510211024CA
:100E910018230825102208230823082208223023BA
:100EA1002025103110271826082620251025082670
:100EB1000827102608250823402418240825102671
:100EC10010251024082308222017101708160815CA
:0A0ED1001016102180F5FFF478F7E9
:060A8F000130010133AA51
:0E19430000007F2B7E067DCBDDFEDEFCDFFA92
:011951002273
:0E19520000007F0D7E9C7D53DDFEDEFCDFFA83
:011960002264
:1019150075252375261675271C75281C7529137BB7
:081925001F7D147F220218A0AF
:100C66007F051215F5BF011B7D147C007FE87E030E
:100C76001213837530017B007A0079307D017C0088
:100C86001218587F021215F5BF011B7D147C007FD8
:100C9600E87E031213837530027B007A0079307D7B
:100CA600017C001218587F041215F5BF011B7D1434
:100CB6007C007FE87E031213837530037B007A0085
:100CC60079307D017C001218587F011215F5BF019D
:100CD6001B7D147C007FE87E031213837530047B32
:100CE600007A0079307D017C001218587F031215B6
:100CF600F5BF011B7D147C007FE87E03121383750C
:100D060030057B007A0079307D017C00121858E4AA
:100D1600FF1215F5EF640170247BFF7A0E7943F517
:100D2600277528987529F3AD2DAF2C12146E121A5B
:0E0D36001ABF01047F0280027F0112183022D2
:10156700E4FF12167FBF011B7530067B007A0079F6
:10157700307D017C001218587D147C007FE87E03C3
:101587001213837F0112167FBF011B7530077B0083
:101597007A0079307D017C001218587D147C007F19
:0715A700E87E03121383220A
:1013FB00052FE52F7002052E643C452E7064F52EEB
:10140B00F52F121A1ABF01057F021218307D07E45F
:10141B00FF1219E675251475261F752714752805F7
:10142B007529207B227D107F171218A07530087B41
:10143B00007A0079307D017C001218587D147C00F5
:10144B007FE87E0312138312195275251775261424
:10145B0075271A75281AE4F5297B0A7D0A7F0A126B
:03146B0018A022A4
:03001F00020C666A
:0300260002156759
:01000A0022D3
:10192D00121961EF600F121A1ABF02047F018002B3
:06193D007F0212183022A7
:10173C007D1E7C007FE87E03121383121A1ABF01F0
:10174C00057F0212183075252375261675271C7512
:10175C00281C7529137B1F7D147F221218A01219C7
:0D176C0043121A1ABF02057F011218302225
:10102D001218C01218DD1218FA1218801219707FDA
:10103D00981217AC7FB07E0412127D7BFF7A007977
:10104D00267F041213067BFF7A1379FB7F0312139D
:10105D00067BFF7A00791F7F071213067BFF7A1933
:10106D00792D7F061213067BFF7A00790A7F08120D
:10107D0013067BFF7A17793C7F091213067D07E46F
:10108D00FF1219E675251775261475271A75281A76
:10109D00E4F5297B0A7D0A7F0A1218A075270075D1
:1010AD002800752933752A00752B017B007A00798C
:1010BD00317D027C00121779752C5A752DFC121A90
:0610CD00141216FE80FB68
:0919DD008B88898C88898F888928
:100A950052007A86860086860086860086860086CF
:090AA500860086860041006F09FD
:03002B00021A08AE
:061A080053BCEFD20C32CA
:02058800153626
:10058A00200C03020731C20C90006EE0B40900404F
:10059A00030207139005A5F82828730205EC020543
:1005AA00C00205D20205FE0205C00205D2020615E6
:1005BA000205C00205D2AFBDEFFEADBE7C00E42D40
:1005CA00FFEC3E900070803CAFBDEFFEADBE7C00FC
:1005DA00E42DFFEC3E900072F0A3EFF0751C0102CF
:1005EA000719AFBDEFFEADBE7C00E42DFFEC3E90D7
:1005FA0000748010AFBDEFFEADBE7C00E42DFFECB1
:10060A003E900076F0A3EFF0020719AFBDEFFEAD02
:10061A00BE7C00E42DFFEC3E900078F0A3EFF09052
:10062A000078E0FEA3E07807CEC313CE13D8F9A86A
:10063A0036F6C394065013A836E675F003A4247A56
:10064A00F582E43400F583E014F090006FE014F0D2
:10065A0060030207197409F0A836E4F6A836E6FF23
:10066A00C394064003020719EF75F003A4247AF530
:10067A0082E43400F583E0C39480502AE6FF75F0E3
:10068A0003A4247BF582E43400F583E0D39480400C
:10069A0040EF75F003A4247CF582E43400F58374FA
:1006AA0001F0F51D802BA836E6FF75F003A4247B24
:1006BA00F582E43400F583E0C394805014EF75F0BA
:1006CA0003A4247CF582E43400F5837402F0751DDA
:1006DA0001A836E6FF75F003A4247AF582E4340013
:1006EA00F583E0FEEF75F003A4247BF582E4340081
:1006FA00F583EEF0E675F003A4247AF582E434007B
:10070A00F5837486F00602066690006E74FFF09018
:10071A00006EE0D39408400374FFF090006EE0048A
:07072A00F09019DD93F5BC0E
:0307310005362268
:02198E0015360C
:09199000A836A61DE4F51DE6FFD2
:03199900053622EE
:02199C001536FE
:09199E00A836A61CE4F51CE6FFC6
:0319A700053622E0
:1017AC008F9D75BC88439720D2AD90004574FFF097
:1017BC00A37405F0A37488F0A374FFF0A37419F05C
:1017CC00A3748EF0A374FFF0A37419F0A3749CF0AF
:0117DC0022EA
:070003007B017A00797022F5
:1015F500C3EF64809480403BD3EF6480948550337F
:10160500EFFD3395E0FC90007C75F003ED12057657
:10161500EC75F003A42583F583E0FE90007C75F05E
:1016250003ED120576EC75F003A42583F583E4F04C
:05163500AF06227F0357
:01163A00228D
:041808001536153646
:10180C001219EFA836A60608A607A836E6FE08E6C3
:0F181C00FF4E600BEF24FFFFEE34FFFE1219F8B2
:05182B00053605362220
:1018800053B1EF43B210121A23E4F5D975DA49D2F5
:10189000DE90003F74FFF0A37418F0A37408F022E8
:081383008E288F298C2A8D2B86
:10138B001219EFEF4E7066AF2BAE2A1219F8C3E5A8
:10139B0029940AE5289400404BE47B18FAF9F8905D
:1013AB000E1112055A1204A1C006C007AE28AF29B0
:1013BB00AB07AA06E4F9F8D007D0061204A1AB07D5
:1013CB00AA06AFF9EFFEADE97C00E42DFFEC3ECFB2
:1013DB002BCF3AAD07FCAF03AE0212000ED2D843AF
:0F13EB00DA018006121A2353DAFE7F02227F03F3
:0113FA0022D0
:0C19C6001219EFEF4E7002FF227F012289
:100B7D00E4F5809000BEE0FFB40800505F900B914B
:100B8D00F8282873020BA9020BAF020BB5020BBBA1
:100B9D00020BC1020BCB020BD5020BDFC2A3C2A20B
:100BAD008016C2A3C2A2801AC2A3C2A2801EC2A373
:100BBD00C2A28022C2A3D2A2C2A1C2A08020C2A37F
:100BCD00D2A2C2A1D2A08016C2A3D2A2D2A1C2A08B
:100BDD00800CC2A3D2A2D2A1D2A08002D2A3C3EF15
:100BED006480948850299000BEE0FF3395E0FE7438
:100BFD00B52FF58274003EF583E0FF3395E0FE746A
:100C0D00152FF582740E3EF583E493F580801E90CA
:100C1D0000BEE0FFB408133395E0FE74B52FF582E6
:100C2D0074003EF583E0F5808003E4F5809000B418
:100C3D00E0FF9000BEE004FEF0D3EF6480F8EE64B8
:100C4D0080984014E0D36480948850047408F02296
:090C5D009000B3E09000BEF0220B
:1018FA00E4F5937594FF5395F043960F90002A747C
:0B190A00FFF0A3740BF0A3747DF0222B
:0919E6009000B3EFF0A3EDF02234
:1018A0009000B5EFF0A3EDF0A3EBF0A3E525F0A3D6
:1018B000E526F0A3E527F0A3E528F0A3E529F0222B
:061A0E009000BDEFF02284
:100AAE000134004900C09494009494009494004141
:030ABE0000BF1E58
:02085A00153651
:10085C0020B2069000C0E014F020B3069000C3E074
:10086C0014F02097069000C6E014F09000BFE0143E
:10087C00F0600302097A741EF0A836E4F6A836E696
:10088C00FFC364809483400302097AEF3395E0FE42
:10089C009000C075F003EF120576EE75F003A425F9
:1008AC0083F583E0C3948050399000C175F003EF59
:1008BC00120576EE75F003A42583F583E0D39480BE
:1008CC00405AE6FF3395E0FE9000C275F003EF123C
:1008DC000576EE75F003A42583F5837401F0F534E9
:1008EC00803AA836E6FF3395E0FE9000C175F00320
:1008FC00EF120576EE75F003A42583F583E0C3941F
:10090C008050199000C275F003EF120576EE75F069
:10091C0003A42583F5837402F0753401A836E6FF31
:10092C00FD3395E0FC9000C075F003ED120576ECFC
:10093C0075F003A42583F583E0FE9000C175F003E8
:10094C00ED120576EC75F003A42583F583EEF0EF3C
:10095C003395E0FE9000C075F003EF120576EE754E
:0E096C00F003A42583F5837494F00602088935
:03097A000536221D
:0219AA001536F0
:0919AC00A836A634E4F534E6FF88
:0319B500053622D2
:1018C00090003074FFF0A37419F0A374AAF0900094
:0D18D0002D74FFF0A37408F0A3745AF022E9
:10167F00EF600764016003BF0233EFFD3395E0FCB9
:10168F009000C275F003ED120576EC75F003A425FA
:10169F0083F583E0FE9000C275F003ED120576EC42
:0F16AF0075F003A42583F583E4F0AF06227F03D3
:0116BE002209
:100AC1004100000A4100290A41006D0A040E00009C
:100AD10000000116004600670000FFFF8FFFC10AFA
:100AE100C105C108C101C10B60240005FF0022FF3F
:100AF1000022FF0022FF0022FF0022FF0022FF0050
:100B010022FF0022FF0022FF0022FF0022FF00221D
:100B11006036002AFF0022FF0022FF1A20FF002278
:100B2100FF1A20FF0022FF1A20FF0022FF0022FFF0
:100B31000022FF1A20FF1A20FF1A20FF1A20FF00AF
:0A0B410022FF0022FF0022FF002225
:0100220022BB
:031A20007F002222
:1015AE00438E805389F07BE07A2879017800900E83
:1015BE001112055A12163BEFF404F58A7BE07A28D5
:1015CE0079017800900E1112055A12163BC3E49F52
:1015DE00FFE49EFE74019DFDE49CFC780812054616
:0715EE008F8CD28CD2A922E0
:03000B00021519C2
:04151900C0E0C0D09E
:10151D00D5080A75084C300A020516D20AA20372C4
:10152D00045032150AE50A702C850C0AD2073009D1
:10153D0017E50D6007150D438F018019538FFEC2FE
:10154D00B5D51811C209800D050BE50BD3940640D6
:05155D0004D206C203E8
:05156200D0D0D0E03202
:1014C600300B47C20B900E1112055A7810120546C2
:1014D6008E1E8F1F900003E0FEA3E0FFE4FCFD7B61
:1014E60019FAF9F8120416C006C007AE1EAF1FABF4
:1014F60007AA06E4F9F8D007D00612163B780312BD
:101506000546900065EEF0A3EFF0900065E0FEA3BF
:02151600E0FFF4
:0115180022B0
:0919EF00900067E0FEA3E0FF2276
:0919F800900067EEF0A3EFF0226D
:10000E0090006BEEF0A3EFF0900069ECF0A3EDF032
:01001E0022BF
:031A2300C2B42228
:03003B00020F852C
:100F8500C0E0C083C082C0D075D000C004C005C019
:030F950006C0078C
:100F980030DF04C2DF807D30DA04C2DA807630D9EF
:100FA8003DC2D9AFFBEFFEADEB7C00E42DFFEC3E7C
:100FB80020000E900001F0A3EFF075DB11D2008045
:100FC80053FE900001E0FCA3E0FDC3EF9DFFEE9C03
:100FD800A3F0A3EFF075DB00C200D20B803630D847
:100FE80033C2D8900067E07002A3E06022B2B490E8
:100FF8000069E0FEA3E0F5EAEEF5FAA3E0FEA3E05F
:10100800FF90006AE02FF0900069E03EF08005C292
:04101800B453DAFEF5
:10101C00D007D006D005D004D0D0D082D083D0E079
:01102C003291
:061A14001215AED2AF2254
:1011F2003004047F0180027F002009047E01800206
:101202007E00EE5F6074E517C395095068300236C0
:10121200750D01E517131313541FAB19AA1AA91B55
:10122200F582758300120334FFE517540704FEEFBD
:10123200A806088002C333D8FC30D705751803808E
:101242002F751801802AAB19AA1AA91B75F002E59D
:1012520017A4F58285F083120334F50DE51775F0B6
:1012620002A429F9EA35F0FA900001120334F518C4
:0A1272000517D20922C204438F10B1
:01127C00224F
:100D4400900000E014F0701F740AF0D2059000299E
:100D5400E014F07012740AF0D20890006DE014F000
:100D64007005740AF0D20190002AA3E0FAA3E0F916
:100D740012058290002DA3E0FAA3E0F912058290F7
:100D84000039A3E0FAA3E0F9120582900045A3E03C
:100D9400FAA3E0F9120582900054A3E0FAA3E0F963
:100DA40012058290005DA3E0FAA3E0F91205829097
:100DB4000005A3E0FAA3E0F912058290004BA3E03A
:100DC400FAA3E0F9120582EF600C90001DA3E0FA8B
:100DD400A3E0F912058290004EA3E0FAA3E0F91211
:100DE4000582EF600C900020A3E0FAA3E0F912055D
:100DF40082900051A3E0FAA3E0F9120582EF600C9F
:0D0E0400900023A3E0FAA3E0F9120582227A
:1010D30090003FA3E0FAA3E0F9120582900042A337
:1010E300E0FAA3E0F9120582900033A3E0FAA3E04B
:1010F300F9120582900008A3E0FAA3E0F912058231
:10110300900030A3E0FAA3E0F9120582EF600C909F
:101113000011A3E0FAA3E0F9120582900036A3E0E0
:10112300FAA3E0F9120582EF600C900017A3E0FA2E
:10113300A3E0F9120582900048A3E0FAA3E0F912B4
:101143000582EF600C90001AA3E0FAA3E0F9120500
:101153008230060EC206900026A3E0FAA3E0F9123D
:03116300058222E0
:1016BF0090000BA3E0FAA3E0F912058290003CA37F
:1016CF00E0FAA3E0F9120582EF600C900014A3E09A
:1016DF00FAA3E0F9120582900057A3E0FAA3E0F90C
:0F16EF0012058290005AA3E0FAA3E0F9020582E7
:1017DD00AF11AE10AD0FAC0E90006012056A900007
:1017ED0064E516F0E4F511F510F50FF50EF516900C
:0B17FD00000EA3E0FAA3E0F902058251
:1016FE00300705C2071211F2300A05C20A120D4454
:10170E00300505C2051210D3300805C2081216BFE7
:10171E00300105C2011217DDE5112401F511E43582
:0E172E0010F510E4350FF50FE4350EF50E2220
:101306008B228A238924EFB40C005070901319F8AD
:1013160028287302133D02134202134702134C029C
:10132600135102135602135B021360021365021374
:101336006A02136F021374900005803590000880CE
:101346003090000B802B90000E802690001180219B
:10135600900017801C900014801790001A8012903D
:10136600001D800D900020800890002380039000CF
:0D13760026E522F0A3E523F0A3E524F022F4
:071A01007B017A00796022ED
:070B4B000135004100C90063
:0D002E0020A4097535019000C97401F0226D
:0219B8001536E2
:0919BA00A836A635E4F535E6FF78
:0319C300053622C4
:1018DD0090003C74FFF0A37419F0A374B8F090005D
:0D18ED003974FFF0A37400F0A3742EF022F4
:02196100153639
:0A1963009000C9E0A836F6FFE4F09A
:03196D000536221A
:1007340000C400DC00F701060126014A01720188A9
:1007440001B801EE020B024B029302E403100370A2
:1007540003DC04160497052605C800DC00F7011520
:100764000126014A0172019F01B801EE022A024BDF
:10077400029302E4033F037003DC04550497052647
:1007840005C8067D00F701150137014A0172019F72
:1007940001D201EE022A026E029302E4033F03A493
:1007A40003DC045504DD057505C8067D074901060B
:1007B4000126014A015D018801B801EE020B024BDA
:1007C400029302BA0310037003DC0416049705268F
:1007D4000575062006E007B80126014A0172018862
:1007E40001B801EE022A024B029302E403100370E3
:1007F40003DC04550497052605C8062006E007B85F
:1008040008AA014A0172019F01B801EE022A026E90
:10081400029302E4033F037003DC045504DD052660
:1008240005C8067D06E007B808AA09B9015D018874
:1008340001B801D2020B024B029302BA03100370F7
:1008440003A40416049705260575062006E0074947
:06085400082D092D0A4DDC
:100B52004D00A6030000000000000000000000009D
:060EDB008F228D238B2401
:100EE1001219C6EF60037F0122E524D39400400666
:100EF100E52494114028E524D394174006E5249471
:100F010021401BE524D394274006E5249431400E6B
:100F1100E524D394375007E522C394F950037F03A6
:100F210022E524603DC4540F75F007A4FDACF0E543
:100F31002275F015A42DFFE5F03CFEE52454077C55
:100F4100002FFFEC3EFEEF25E0FFEE33FE744A2F4B
:100F5100F58274DE3EF583E493F526740193F5275B
:100F61008005E4F526F527AF257E007C017D77120B
:100F71000383AD231C120395AD07AC06AF27AE2644
:030F8100121383C5
:010F8400224A
:04003E001536153628
:100042001219C6EF70047F0180027F009000A6E0C3
:10005200FEB402047D0180027D00ED5F60030203B5
:100062002FEEB4030AE49000A4F0A3F002032F9051
:1000720000A7E0FFB4F3047E0180027E00EFB4F13A
:10008200047F0180027F00EF4E603E9000A9E0FEF7
:1000920075F06484FFEE75F00A8475F00A84ADF0A1
:1000A200E075F00A84ABF075250A9000A8E02407F9
:1000B200F5269000A3E0FEC4540F240AF527752804
:1000C2000AEE5407F5291218A09000A7E0FFB4F336
:1000D200047E0180027E00EFB4F2047F0180027F81
:1000E20000EF4E70030201889000A9E0FD7C007EC3
:1000F200177F70120395A836A607E6F975F002A4D9
:10010200FFC39000B2E09F9000B1E095F05070E024
:10011200FEA3E0FF7C007D0B120383E9FBFD1203CB
:1001220095A83608A6079000B1E475F00112040004
:10013200FED3E5F09BEE94004018A83608E624F9B9
:10014200FFE47EF0A807088005CEC313CE13D8F9CA
:10015200801FA83608E6FF740F7E00A807088005F6
:10016200C333CE33CED8F97804CEA2E713CE13D858
:10017200F8A83608F6A83608E6FF121A0E8007E439
:100182009000B1F0A3F09000ADE0FEA3E0FFC390B9
:1001920000B0E09F9000AFE09E40030203291219D5
:1001A200C6EF600302032F9000AAE0FBA3E0FAA3CC
:1001B200E0F99000AFE0FEA3E0F5828E83120334F3
:1001C200FFD3943750030202C4EF241024FC507969
:1001D200604524FE700302026F147003020285243C
:1001E2000260030202B39000AAE0FBA3E0FAA3E0DC
:1001F200F99000AFE475F0011203EA85F082F5830D
:100202001203349000A8F09000B0E004F0709890CF
:1002120000AFE004F080909000AAE0FBA3E0FAA314
:10022200E0F99000AFE475F0011203EA85F082F57F
:10023200831203349000A9F09000B0E004F0706ED5
:100242009000AFE004F00201A99000AAE0FBA3E055
:10025200FAA3E0F99000AFE475F00112040085F012
:1002620082F5831203349000A7F00201A99000AF37
:10027200E475F0011203EAAFF09000A4F0A3EFF0EE
:100282000201A99000A4E0FEA3E0FF4E60129000DC
:10029200AFEEF0A3EFF0E49000A4F0A3F00201A906
:1002A2009000B0E004F070069000AFE004F00201AC
:1002B200A99000B0E004F070069000AFE004F002F4
:1002C20001A99000ADE0FEA3E0FFC39000B0E09F63
:1002D2009000AFE09E50569000AAE0FBA3E0FAA384
:1002E200E0F99000AFE475F00112040085F082F5A8
:1002F200831203349000A3F09000A8E0FFA3E0FD76
:10030200A3E0FBA3E0FAA3E0F99000AFE475F001EB
:1003120012040085F082F583120334F5259000A3C0
:0D032200E0FB120EDB80069000A67403F0D5
:05032F00053605362231
:0F19700090004274FFF0A37400F0A3743EF022C5
:10146E009000A6E0B4030DE49000AFF0A3F0A3F05B
:10147E00A3F0C20DE52960049000A7F0EF60049080
:10148E0000A9F0ED60049000A8F0E94A60047F0125
:10149E0080027F00E528452760047E0180027E00E1
:1014AE00EE5F60139000AAEBF0A3EAF0A3E9F0A3BD
:0814BE00E527F0A3E528F02268
:10183000BF02047E0180027E00BF01047D018002A0
:101840007D00ED4EFEBF03047D0180027D00ED4E64
:0818500060059000A6EFF022F4
:061A1A009000A6E0FF228F
:100B620057008C04B00000000000000000000000EC
:0A0B72000000000001000000000078
:0300230002097D52
:10097D00C0E0C0F0C083C082C0D075D000C000C040
:10098D0001C002C003C004C005C006C00730993BBA
:10099D00C299900093E0FEA3E0FFC3900092E09F08
:1009AD00900091E09E501F90008EE0FBA3E0FAA313
:1009BD00E0F9A3E475F00112040085F082F58312CD
:1009CD000334F5998005900095E4F0209803020A10
:1009DD0074C298900096E0FBA3E0FAA3E0F99000B2
:1009ED009BE0FEA3E0FFF5828E83E59912036190F3
:1009FD0000A1E0FCA3E0FDC3EF9DEE9C50469000EE
:100A0D0099E0FEA3E0FFED9FEC9E503890009EE034
:100A1D00FBA3E0FAA3E0F990009BE0FEA3E0FFF555
:100A2D00828E83120334FD900096E0FBA3E0FAA3BF
:100A3D00E0F98F828E831203346D600890009B74F1
:100A4D00FFF0A3F090009BE475F0011203EAFED3D2
:100A5D0090009AE095F0900099E09E500A90009BCE
:100A6D00E4F0A3F0A304F0D007D006D005D004D055
:100A7D0003D002D001D000D0D0D082D083D0F0D01E
:020A8D00E03255
:02197F0015361B
:0A19810090009DE0A836F6FFE4F0A8
:03198B00053622FC
:10127D008E228F23759850438E40538EFE53890FC7
:10128D00E47B04FAF9F8900E1112055A1204A1C06C
:10129D0006C007AE22AF23AB07AA06E4F9F8D007C4
:1012AD00D0061204A1EFF404F58BE47B04FAF9F8EF
:1012BD00900E1112055A1204A1C006C007AE22AF3E
:1012CD0023AB07AA06E4F9F8D007D0061204A1C390
:1012DD00E49FFFE49EFE74019DFDE49CFC780812E2
:1012ED0005338F8DC2ABD28ED2AC90004E74FFF011
:0912FD00A37419F0A3747FF02220
:10177900900096EBF0A3EAF0A3E9F0A3ECF0A3ED57
:10178900F09000A1E52AF0A3E52BF090009EE52753
:10179900F0A3E528F0A3E529F0E490009BF0A3F07D
:0317A900A3F02288
:10185800900095E0701F90008EEBF0A3EAF0A3E9EA
:10186800F0E4A3F0A3F0A3ECF0A3EDF0A37401F06F
:08187800D2997F02227F0322B6
:0B19D200900095E07002FF227F0122D0
:0300000002116684
:0C116600787FE4F6D8FD7581360211ADEB
:10033400BB010CE58229F582E5833AF583E022507E
:1003440006E92582F8E622BBFE06E92582F8E222C8
:0D035400E58229F582E5833AF583E49322E2
:10036100F8BB010DE58229F582E5833AF583E8F0D2
:10037100225006E92582C8F622BBFE05E92582C87E
:02038100F22266
:10038300EF8DF0A4A8F0CF8CF0A428CE8DF0A42E8E
:02039300FE2248
:10039500BC000BBE0029EF8DF084FFADF022E4CC4C
:1003A500F875F008EF2FFFEE33FEEC33FCEE9DEC15
:1003B500984005FCEE9DFE0FD5F0E9E4CEFD22ED5B
:1003C500F8F5F0EE8420D21CFEADF075F008EF2FA5
:1003D500FFED33FD4007985006D5F0F222C398FD96
:0503E5000FD5F0EA2233
:1003EA00C5F0F8A3E028F0C5F0F8E582158270029E
:0603FA001583E038F0223B
:10040000A3F8E0C5F025F0F0E582158270021583AF
:06041000E0C838F0E8220C
:10041600E88FF0A4CC8BF0A42CFCE98EF0A42CFC85
:100426008AF0EDA42CFCEA8EF0A4CDA8F08BF0A403
:100436002DCC3825F0FDE98FF0A42CCD35F0FCEB62
:100446008EF0A4FEA9F0EB8FF0A4CFC5F02ECD3927
:0F045600FEE43CFCEAA42DCE35F0FDE43CFC2294
:1004650075F008758200EF2FFFEE33FECD33CDCC4E
:1004750033CCC58233C5829BED9AEC99E5829840D1
:100485000CF582EE9BFEED9AFDEC99FC0FD5F0D6AE
:10049500E4CEFBE4CDFAE4CCF9A88222B800C1B9D8
:1004A5000059BA002DEC8BF084CFCECDFCE5F0CB16
:1004B500F97818EF2FFFEE33FEED33FDEC33FCEB4F
:1004C50033FB10D703994004EB99FB0FD8E5E4F90A
:1004D500FA227818EF2FFFEE33FEED33FDEC33FCF7
:1004E500C933C910D7059BE99A4007EC9BFCE99AEB
:1004F500F90FD8E0E4C9FAE4CCFB2275F010EF2F30
:10050500FFEE33FEED33FDCC33CCC833C810D7072F
:100515009BEC9AE899400AED9BFDEC9AFCE899F86A
:0E0525000FD5F0DAE4CDFBE4CCFAE4C8F922FD
:10163B00C2D5E830E70FB2D5E4C39BFBE49AFAE4DA
:10164B0099F9E498F8EC30E717B2D5121671120439
:10165B00A1E4C39BFBE49AFAE499F9E498F88003BC
:10166B001204A130D50DE4C39FFFE49EFEE49DFD63
:04167B00E49CFC22CD
:10053300E8600FECC313FCED13FDEE13FEEF13FFA6
:03054300D8F122CA
:10054600E86010ECA2E713FCED13FDEE13FEEF13CB
:04055600FFD8F022B8
:10055A00E493FC740193FD740293FE740393FF22E7
:0C056A00ECF0A3EDF0A3EEF0A3EFF02204
:0C057600A42582F582E5F03583F5832290
:060582008A838982E47304
:1011720002102DE493A3F8E493A34003F68001F256
:1011820008DFF48029E493A3F85407240CC8C3337E
:10119200C4540F4420C8834004F456800146F6DF4D
:1011A200E4800B0102040810204080900A8FE47E44
:1011B200019360BCA3FF543F30E509541FFEE49342
:1011C200A360010ECF54C025E060A840B8E493A309
:1011D200FAE493A3F8E493A3C8C582C8CAC583CA34
:1011E200F0A3C8C582C8CAC583CADFE9DEE780BEEC
:010B7C000078
:00000001FF
